:020000041000EA
:1000000000B5324B212058609868022188439860DF
:10001000D860186158612E4B002199600221596106
:100020000121F02299502B49196001219960352056
:1000300000F044F80222904214D00621196600F024
:1000400034F8196E01211966002018661A6600F04E
:100050002CF8196E196E196E052000F02FF8012189
:100060000842F9D1002199601B49196000215960AB
:100070001A491B48016001219960EB211966A021F2
:10008000196600F012F800219960164914480160C1
:100090000121996001BC002800D000471248134993
:1000A000086003C880F30888084703B5996A0420EC
:1000B0000142FBD001200142F8D103BD02B5186610
:1000C0001866FFF7F2FF186E186E02BD00000240BE
:1000D000000000180000070000035F00212200005C
:1000E000F4000018222000A00001001008ED00E03C
:1000F00000000000000000000000000074B24E7A12
:1001000000200420F7010010C3010010C5010010F9
:10011000C1010010C1010010C1010010C101001097
:10012000C1010010C1010010C1010010C701001081
:10013000C1010010C1010010C9010010CB01001065
:10014000CD010010CD010010CD010010CD01001037
:10015000CD010010CD010010CD010010CD01001027
:10016000CD010010CD010010CD010010CD01001017
:10017000CD010010CD010010CD010010CD01001007
:10018000CD010010CD010010CD010010CD010010F7
:10019000CD010010CD010010CD010010CD010010E7
:1001A000CD010010CD010010CD010010CD010010D7
:1001B000CD010010CD010010CD010010CD010010C7
:1001C00000BE00BE00BE00BE00BE00BEEFF3058054
:1001D000103800BEF2EB8871B00D0510D00D05107F
:1001E0003802001090A31AE71E481F49086006C88D
:1001F00081F3088810471D480068002801D019487D
:10020000F3E70DA40ECC002902D000F012F8F9E7B4
:100210001749184A002000E001C19142FCD116495B
:100220008847164988471649884700BEFDE701C937
:1002300001C29A42FBD37047D00D0510E0000020A8
:10024000A0120020901F05100000042000000420D0
:10025000901F051000100420001004200000000072
:10026000704700000000000008ED00E0000000D032
:10027000A012002060DB0020654701102103001060
:100280005D470110F8B5C0460448054B10B58342E0
:1002900003D0044B002B00D0984710BDA0120020C3
:1002A000A01200200000000006480749091A8B1020
:1002B000C90FC91810B5491003D0044B002B00D04A
:1002C000984710BDA0120020A012002000000000DE
:1002D00010B5074C2378002B09D1FFF7D5FF054B4C
:1002E000002B02D0044800E000BF0123237010BDA2
:1002F0007815002000000000AC740110054B10B50B
:10030000002B03D00449054800E000BFFFF7CCFFF5
:1003100010BDC046000000007C150020AC74011028
:1003200010B514F061FB0DF091FA0DF02DFA054BAC
:10033000054A064906480DF035FA064C200014F02F
:10034000A3FBFBE71027000004004000B07401107D
:10035000BC740110C474011010B507F095FB10BDFA
:100360000123F0B50B7283B0040007F0C1FB050058
:10037000431C0DD11249134B1A685B68009201931C
:100380008A60CB60236820005B69984703B0F0BDAA
:1003900001F026FAFA2206000F00002328000021AF
:1003A000920012F095FE36184F41002F03DB0449EE
:1003B0008E60CF60E6E70126034F7642F7E7C0463E
:1003C00090110020F8740110FFFFFF7F70B5094DF8
:1003D00004002B78002B08D00123074920000B7262
:1003E0002368DB699847012070BD01F0D5FF012328
:1003F0002B70F1E751DB00208011002010B50400C4
:10040000036804499B699847236820001B6A0249D6
:10041000984710BD901100208011002000207047E7
:100420007047C04610B501F0DBF9002905D0FA226B
:100430000023920012F00EFB10BDFA21890012F089
:10044000CBFAF9E7020083680832002B04D107E0F9
:100450001A001B68002B03D09942F9D1002003E059
:100460000023012011600B607047C0468368002B99
:1004700008D0994202D107E0994207D01A001B68C0
:10048000002BF9D100207047020008320B680120D0
:100490001360F8E74368021D002B04D107E01A003F
:1004A0001B68002B03D09942F9D1002003E0002300
:1004B000012011600B6070474368002B08D09942FF
:1004C00002D107E0994206D01A001B68002BF9D12F
:1004D00000207047021D0B6801201360F9E7C04639
:1004E000F8B54746CE468368804680B5002B29D0B4
:1004F00008234344994601F073F943469E6804007B
:100500000D00002E58D000234F469C46B268F36879
:1005100020002900801A9941002902DB14001D00E7
:10052000BC4637003668002EF0D16346002B43D01E
:10053000196840460A681A604B68984743469B68AA
:10054000002BD8D143465C68002C31D00025237A9B
:10055000002B29D021006368257240469847246803
:10056000002CF4D1174B1868596843469E68002E3A
:1005700004D112E020002900002E0ED0330002002A
:100580009C68DD680B00121BAB413668002BF1DC68
:10059000F2D1002AEED1002EF0D143461861596104
:1005A000C0BCB946B046F8BD2468002CCFD1D9E70D
:1005B000044B18685968F0E743465C68002CC5D1C5
:1005C000D0E7C046F87401108023DB051868000FDF
:1005D0007047C0460FB400B5084883B014F054FA11
:1005E000049B002B07D005A91800019114F09CF87A
:1005F000034814F049FA012014F0AEF8CC7401104D
:10060000DC040510104A114B10B512184B4199002B
:10061000900F0843990F504059400D4A0D4B12F06E
:1006200057FD03004A01C00E1043CA0E5840514006
:10063000094B0A4A12F04CFD03004A00C00F104358
:10064000CA0F5840514010BD157C4A7FB979379E7A
:10065000B9E5E41C6D4758BFBB49D094EB11311389
:10066000F0B504684568060023002A00C646806885
:10067000F16803430A4300B5134304D101F0B0F815
:1006800003000B43FAD02A06230A604027061343CF
:100690002A0A3A43070CBC4669404B4098466346D9
:1006A0000F041F43424003045A4043467B403260DC
:1006B0007360C20E4B011343C90E40010843B3607F
:1006C000A10FAB000B43A200A4185D41EB01620E29
:1006D0001A43E4016B0E2343F0601E0017005B0F0A
:1006E000D100F00019438019794180BCB846F0BDB3
:1006F000F0B5DE4657464E464546E0B5B84B8DB0A0
:100700001B78002B00D1ECE008AB9846B54BB64CFB
:100710000393B64BB64F049310220499404612F04F
:1007200033FDB44B1B78DBB2059301F059F8FFF7AA
:1007300069FF089B584043465B6808905940434610
:100740005960AD4B9B69DB0400D5C0E012F038F86E
:10075000EFF305839B46B9465F46A84B256866685C
:100760009A4628003100002F1AD001F043F8EFF329
:10077000108272B653461B68002BFBD0BFF35F8F0D
:100780002368AB420FD0BFF35F8F0021534619603F
:1007900082F310882568666828003100002FE4D1B4
:1007A00000F00CFFE3E76368B342ECD10125924B04
:1007B0001600D8694F46054001F012F80A220023BE
:1007C00080185941002900DA7DE03A687B68921868
:1007D0005B412060616028001C00130010430093FF
:1007E000019438607C60BFF35F8F0024834A1460FB
:1007F00086F310880199FFF705FF43469B68804AFE
:1008000058404346DB689446594043469860D96057
:10081000039B7C4A1B78DB006344986890425ED05F
:100820000021FFF7EFFE089B584043465B680890A5
:10083000594043465960EFF3108572B66F4A13680A
:10084000002BFCD0BFF35F8F6A4B059A1B78934255
:1008500019D0049940460B6840681A00089B5A401A
:10086000089242464B68434053608B68009343466E
:10087000009A9B685A40CB684146C96800934B4038
:1008800041468A60CB604046FFF7EAFE1022060030
:100890000C000498414612F077FC564B554A1B78E1
:1008A0000133DBB21370BFF35F8F0022534B1A602A
:1008B00085F31088300021000DB0F0BCBB46B24675
:1008C000A946A046F0BD01204F4940427DE74F4B6D
:1008D000DA6BE0231340402B00D039E736E79C6009
:1008E0009EE74B4B9946186859684A4B9C464A4BC1
:1008F0009846830E8F011F438601030C0D041D4390
:1009000032003B00040412196B41121A8B416146FC
:1009100001C98C460021009001910098019980182E
:100920005941C445E5D14B4618605960FFF76AFE4E
:1009300008AB9846089B584043465B68089059406E
:10094000434606A8596000F021F906980799FFF779
:1009500059FE43469B6858404346DB68594043462E
:100960009860D960244B9B69DB0436D5274BDA6B42
:10097000E0231340402B30D0EFF305839A46402309
:100980000024039300231D4F00930194164C002371
:100990009B4653462568666828003100002B19D015
:1009A00000F028FFEFF3108972B63B68002BFCD0F3
:1009B000BFF35F8F2368AB4230D0BFF35F8F5B46DE
:1009C0003B6089F31088534625686668280031002B
:1009D000002BE5D100F0F2FDE4E711F0F1FECBE7EA
:1009E0005BDB00204EDB002070140020C8000020DC
:1009F000D80000204FDB002000000640300100D06E
:100A000000000340FFFFFF00FFFFFF7F008000406A
:100A1000C0000020001C0420002004206368B342B2
:100A2000CBD1009A019B1000190080185941484B06
:100A3000DA690123134003430093019100F0D0FED3
:100A40000A22002380185941002949DB039B2060BA
:100A50006160012B3AD1009801993E4F386079606E
:100A6000BFF35F8F00233C4D2B6089F31088FFF7A5
:100A7000C9FD089B584043465B680890594043466F
:100A8000596000F0ADFEFFF7BDFD43469B6858403E
:100A90004346DB68594043469860D960EFF31086BF
:100AA00072B62B68002BFCD0BFF35F8F2B4B1B78EB
:100AB000002B19D02A4B03932A4B0493BFF35F8F6B
:100AC0000022254B1A6086F3108825E6BFF35F8F5E
:100AD00000233B6089F31088039B013B039356E797
:100AE000012021494042B1E7204BDA681F2A23D078
:100AF0005A691F2A22D0DA691F2A25D05B6A1F2B68
:100B00001FD011F05DFEFF22FF231549DB000A70A4
:100B1000174A03919446052263445A604046FFF702
:100B20009FFD104B102218004146049312F02CFB3D
:100B300001230A4A1370C1E700230393039BDAB22F
:100B4000E3E71C3B0393F9E702230393F6E7C04670
:100B500000000640D8000020300100D05BDB002000
:100B60004EDB0020C8000020FFFFFF7F0000034095
:100B70000800034010B5FFF7BBFD10BD10B50248DB
:100B800000F0E0F810BDC046DCD9002010B5082206
:100B9000014912F0F9FA10BDDCD9002030B54B1E26
:100BA000012900D1A7E0664A11780D112C003034DC
:100BB0009F2900D9A2E00470012B00D1BEE00F21D3
:100BC000147821400C003034092900DD98E044708D
:100BD000022B00D1B2E054782511290030319F2C2E
:100BE00000D990E08170032B00D1A7E00F212140B4
:100BF0000C003034092900DD87E0C470042B00D1DB
:100C00009CE094782511290030319F2C00D97FE099
:100C10000171052B00D191E00F2121400C003034EF
:100C2000092900DD76E04471062B00D186E0D478F6
:100C30002511290030319F2C00D96EE08171072BDE
:100C400000D17BE00F2121400C003034092966DC03
:100C5000C471082B00D171E01479251129003031BD
:100C60009F2C5FD80172092B68D00F2121400C0006
:100C70003034092958DC44720A2B5FD0547925118D
:100C8000290030319F2C52D881720B2B56D00F2166
:100C900021400C00303409294BDCC4720C2B4DD0A0
:100CA00094792511290030319F2C00D90731017327
:100CB0000D2B43D00F2121400C003034092901DDD8
:100CC00037310C0044730E2B38D0D1790C1122002F
:100CD00030329F2900D9073282730F2B2ED00F227A
:100CE0000A4011003731092A01DC30321100C1738A
:100CF000102B23D010300023037030BD07345AE787
:100D000037310C0063E707316CE737310C0074E7CB
:100D100007317DE737310C0085E707318EE7373142
:100D20000C0095E707319DE737310C00A3E7073149
:100D3000AAE737310C00C4720C2BB1D1C018DAE726
:100D4000DCD9002030B5002589B00400092200213B
:100D500001A8009512F012FA0922002105A80495B5
:100D600012F00CFA4B236A466846137004A90D2250
:100D700016F0F2FA152108222000694412F004FA54
:100D800009B030BDEFF3108072B6034A1368002B30
:100D9000FCD0BFF35F8F70472C0100D0BFF35F8F93
:100DA0000022024B1A6080F3108870472C0100D09B
:100DB00070B5EFF3108C72B60D4D2B68002BFCD084
:100DC000BFF35F8F0724CB08C618C05C01230C401B
:100DD000A3401C000440034207D103433370BFF318
:100DE0005F8F2C608CF3108870BD1000FFF7F2FB52
:100DF0002C0100D0F8B54746CE46884680B5EFF3C3
:100E0000108C72B6214D2C68002CFCD0BFF35F8F84
:100E10009A422CD8D4080727055D061901241740EB
:100E2000BC402C421FD007210127894609E0D40885
:100E3000055D06194C4639001440A1400C002942BA
:100E400011D001329342F2D201204042BFF35F8FB2
:100E500000220E4B1A608CF3108800280FDBC0BCF8
:100E6000B946B046F8BD2C4310003470EEE7BFF32E
:100E70005F8F00232B608CF3108801204042434693
:100E8000002BECD00898FFF7A5FBC0462C0100D042
:100E900030B5EFF3108C72B60A4C2368002BFCD0EF
:100EA000BFF35F8F07230122CD0819408A40435DBD
:100EB00093434355BFF35F8F002323608CF3108867
:100EC00030BDC0462C0100D0044A1078431CDBB270
:100ED000172B00D9102313707047C046A8110020AB
:100EE00000B5054B83B00100009318221F2303486F
:100EF000FFF780FF03B000BDDC7401105C1D002013
:100F00000021044B044ABFF35F8F02C39342FAD11E
:100F10007047C046000100D0800100D0142310B5F6
:100F20000100188804331B88984710BD162310B59C
:100F30000100188802331B88984710BDF8B5474652
:100F4000CE4680B50F1E19D01423994604330400F1
:100F50000025012698464B461888434621681B8881
:100F6000984701C4431E9841013540420640AF42B4
:100F7000F1D13000C0BCB946B046F8BD0126F8E753
:100F8000142370B50400188804331B880D0005492C
:100F9000984703000020002C01DB0130A04029000D
:100FA0009847C046554200000A4B1968EFF310807D
:100FB00072B60A68002AFCD0BFF35F8F1B68BFF3CC
:100FC0005F8F00221A6080F3108840BF002000214C
:100FD0007047C046ECDA0020F0B5DE4657464E4674
:100FE0004546E0B585B0EFF30582032313409A0030
:100FF00011000392B64A5258904601229A409146F7
:10100000B44B1A604B46B4484363434608229B5E88
:101010009A46002B3DDA43469B881BB2002B00DB2F
:10102000A1E043469B79002B00D0F3E0434608241F
:101030001C5F002C23DB42465269630094461B1957
:10104000DB0063449C68DD68631C00D10FE1A248AB
:10105000039984466144826A0B69A61A9B1A9E42D0
:1010600015D34A46036A1A4211D09B4800F0B0FBE0
:10107000241A8D41002D02DCC4D1002CC2D040BF07
:1010800005B0F0BCBB46B246A946A046F0BD0C6117
:10109000EBE7424652695B0093465344DB009B44B6
:1010A0005B469E68DF6800F093FB801BB941002916
:1010B000B1DB002F00DAE5E05B46884A1B6993420A
:1010C00000D1D8E041465A460820085E5288000404
:1010D00010435A465169984704000D0023002B43E2
:1010E00000D1CFE0002D00DBE8E0361BAF4134003B
:1010F0003D005B469C60DD600021595E002900DAFE
:1011000089E743465B6922009C462B004800401853
:10111000C00060448668C768921BBB41002B00DAA0
:1011200079E74346664602000094019519810CE078
:101130007B00DB19DB00F318009801999C68DD68DF
:10114000001BA941002904DB1A000023D75E002FF1
:10115000EEDA5B461F805346138043469B881BB2E2
:10116000002B00DA5DE743461A69EFF3108172B68F
:101170001368002BFCD0BFF35F8F43469B88424629
:101180001BB29A4601235B4293801369BFF35F8FC2
:1011900000221A6081F310885346002B00DA40E7E2
:1011A00043465B699C46082343449B4653465F0085
:1011B00043465744FF0008229A5E67445E46BC6877
:1011C000FD68002A19DB3B000094019567469C46A8
:1011D00004E01E000023F25E002A0BDB0098019958
:1011E00053009B18DB00FB189C68DD68001BA941BD
:1011F0000029EEDA6346BC461F00534633800021C7
:101200007B5E3A809A46002BD0DA43469B79002BCE
:1012100000D10BE70023424693714346464608211E
:10122000595E08364B1C00D129E747468C46556964
:1012300002E006004B1C17D04B005B18DB00E818DF
:101240000A00E95E43881BB2002BF2DA01235B42FD
:10125000DC178360C4606245ECD031803B899446E2
:1012600003803A814B1CE7D1B8466446E1E66B1C2B
:1012700000D0ECE6F9E65B465C69200023699847FC
:10128000002821D15B4642461B8813811269EFF387
:10129000108372B611680029FCD0BFF35F8F4246FD
:1012A000594652880A804246514651801269BFF31E
:1012B0005F8F0021116083F31088ACE6064800F0D0
:1012C00087FA24184D4114E76568246806E7C0468C
:1012D000FCC900203C70054000400540D90F0010BB
:1012E00070B52E4C2569002D04D00A212C4800F041
:1012F00077FD70BD2B4E0321300000F05FFAE660F1
:10130000FFF7E2FD284B03229C46D02322701B06E8
:101310001B6801216370254B6044A3600F2380008C
:1013200020610220638063694942A18019800231F3
:10133000198647311D83585218315A5275325C391B
:10134000995218320131995218320131995218329A
:1013500001319952083518329D5202311832995292
:101360001832013199521832013199521832013133
:1013700099521832013199521832013199520C4B5D
:101380000C49DC600130356200F08EFA0121032047
:1013900000F052FA084B1D60A7E7C046AC110020D0
:1013A000ECDA00200040054040000034FFFF100050
:1013B000FCC90020D90F0010386005400048704774
:1013C000AC110020F8B51F0008AB1B780400160014
:1013D000002B07D100F004FA32003B00121A8B41B7
:1013E000002B4CDB2269EFF3108072B61368002BE0
:1013F000FCD0BFF35F8F62690223E15E94464B002D
:101400005B18DB006344002901DB1A8862802269D3
:10141000BFF35F8F0025156080F31088002930DB53
:10142000069A9E60DF601A61079A5A615A880132F3
:101430005204520C161C002A1FD0B0B20A045E805F
:1014400010432669EFF3108572B63268002AFCD08B
:10145000BFF35F8FA2881A80A1802369BFF35F8FDB
:1014600000221A6085F31088074923788C460132E0
:101470009A40E36863441A60F8BD0126DDE7002066
:10148000FAE701204042F7E73C20000070B5C6466D
:10149000010000B50469EFF3108C72B620680028D3
:1014A000FCD0BFF35F8F02200D5E48696C00804660
:1014B0006419E4004444002D01DB20884880086959
:1014C000BFF35F8F002606608CF31088002D30DBA1
:1014D000E36063880598013320615B0406985B0C28
:1014E000A26060611A1C002B21D090B22B04628094
:1014F00018430A69EFF3108672B61368002BFCD00C
:10150000BFF35F8F8B8823808D800B69BFF35F8F64
:1015100000221A6086F310880B7801329A40CB685B
:1015200005498C4663441A6040BCB04670BD012238
:10153000DBE701204042F7E73C20000010B543897B
:101540000A14934233DD53009B184269DB00944632
:1015500004696344EFF3108C72B62268002AFCD051
:10156000BFF35F8F5A88090494B2090C8A4208D0ED
:101570000369BFF35F8F00221A608CF3108800208C
:1015800010BD8022120214435C8001230269837122
:10159000BFF35F8F002111608CF31088054902783A
:1015A0008C469340C268012062441360E8E7002043
:1015B000E6E7C0463C20000040787047F0B50400E4
:1015C0000D0006267642F717C64636196F4100B55C
:1015D00082B08F4214D811D000F002F932003B00E3
:1015E000121A8B41002B15DC002B44D0200029005F
:1015F00000F000F902B080BCB846F0BD8642EBD9DD
:101600000026002700F0ECF832003B00121A8B4154
:10161000002BE9DD00F0E4F832003B00121A8B41A8
:10162000002B0ADB00230193144B32000093144873
:101630003B00FFF72BFF0028D8DBB0460026BC4656
:10164000104A114F7B6A9C4504D8B96A8845CDD9A8
:101650009C45CBD11168EFF3108072B60B68002B5C
:10166000FCD0BFF35F8F1368BFF35F8F1E6080F302
:10167000108820BFE6E7002AB8D0CBE7A90F0010FA
:10168000AC110020ECDA00200040054070B50600E7
:1016900000F0A6F8FA2204000D000023300000211B
:1016A000920011F015FD00196941002902DBFFF7D6
:1016B00085FF70BD012001494042F8E7FFFFFF7F31
:1016C000F0B5CE46474680B504000D0083B0EFF379
:1016D0000587002F0DD0364A0020536A8B4203D372
:1016E000926A0130A24250D303B0C0BCB946B046A2
:1016F000F0BD304B9846DB689946434648461E7815
:1017000000F066F80B00494602000436B600715836
:1017100020008E1A2900801A99418F4211DC0ED0C8
:1017200020BF234A0020536AAB42DDD3926A0130C6
:10173000A242D9D2E81A421E9041C0B2D4E78642F2
:10174000EED900F04DF822002B00121A8B41002B2D
:1017500020DB00230193184B2200009340462B000E
:10176000FFF794FE011E15DD114B2E005A6A9542BB
:101770001CD89B6AA34217D34046FFF7DFFE0C4AF2
:101780000020536A9E42AFD8D0E7581A421E9041BB
:10179000C0B2A9E7064A0020536AAB42A4D3926ABA
:1017A0000120A242A0D2C5E79542E5D120BFE3E7E0
:1017B00000400540AC110020A90F001010B5024AEE
:1017C0000248FFF7F5FA10BD00750110601D0020FA
:1017D0000300416A0A00986A596A8A42FAD170473E
:1017E000034B596A0A00986A596A9142FAD17047C4
:1017F00000400540064A536A9942FCD807D1044B81
:1018000002E05A6A914202D19A6A8242F9D3704741
:1018100000400540054B064A1360064A13605360BA
:101820009360D360136153619361704780808080BF
:1018300000E400E004E400E01F2318401E3B834066
:10184000002905D0C021044A490053501360704755
:10185000802201498B50FAE700E100E0012282403A
:10186000034B1B6813405A1E9341D8B27047C046C1
:1018700000E100E001238340014A13607047C04645
:1018800000E200E0064B10309B688000C358054A18
:1018900000209B1A2F229A424041C0B27047C04696
:1018A00000ED00E0C411002070B50D00EFF31086CC
:1018B00072B60F4A1368002BFCD0BFF35F8F0D4B3D
:1018C00010309B6884001B590B4A934203D09D4201
:1018D00001D010F075FF074B9B681D51BFF35F8F60
:1018E000BFF35F8F0022024B1A6086F3108870BD31
:1018F000240100D000ED00E0CD010010F0B5574606
:101900004E46DE464546E0B585B00600029117001A
:10191000EFF3108B72B6674A1368002BFCD0BFF34D
:101920005F8F0025644B5D579A46002D00DAA4E0D6
:101930006B00624C03935B199B009846A146C1441F
:101940004B4652469B79103613705D4BB2009B6834
:10195000019299580B1B2F2B34D95A4B994200D026
:10196000A4E0039B584A9C46584B6544AD00635322
:10197000434602336519E418554B0121043B1B1BF8
:101980001B055B0D13436B80524BEF71AB80FF2344
:10199000AB71029BAB604B460B431900484B019A5D
:1019A0009B689950BFF35F8FBFF35F8F0022414B5D
:1019B0001A608BF3108805B0F0BCBB46B246A9464E
:1019C000A046F0BD01200A008243D379BB422FD844
:1019D00045464E46130040491B1B5B415943090DC8
:1019E0003A4B63533A4B02356519043B5B1B1B05AD
:1019F000354D5B0D2B4373800426B446E0444444CC
:101A0000131F1B1B4C46A17102991B05A16049467F
:101A10005B0D2B43A380314BE77101431360BDE79E
:101A20005800C01880002018C679BE422BD9020089
:101A30000623D356002BF3DA101D82462848804631
:101A400004267642B446E14450464E46361A3005E6
:101A5000400D824656461C48957106439680039A6F
:101A6000944665441D4AAD00641922604246A37144
:101A7000029BA280E771A36090E710F0A1FE002511
:101A800053465D5754E7101D824690884005001567
:101A900084464046D444664604302018301AE02676
:101AA0000005400D360230438046C9E710F088FE3D
:101AB00057E7C046240100D054DB0020C4110020A9
:101AC00000ED00E0CD01001000E0FFFF00A1FFFFEE
:101AD000F411002001BDFFFFAAAA000001488047C1
:101AE00001BD0000F0B5DE4657464E464546E0B51E
:101AF0000C0083B0EFF3108972B65F4A1368002BB5
:101B0000FCD0BFF35F8F5D4B9A68030010339F00DA
:101B1000D5595B4A904695423DD0A5424ED0594E8C
:101B2000AA1B2F2A37D8584A934612689446012296
:101B300061469246824011401F2210405246824028
:101B4000924601918022514658468150BFF35F8FE3
:101B5000EFF305829346002A32D101232A009A43EB
:101B60009068844208D17CE04B005B189B00F3181E
:101B7000986884422ED01A00062151560029F3DAC3
:101B800084424DD0019B002B1FD0C02251463E4BBA
:101B9000520099501960394B9B68DD51BFF35F8F3C
:101BA000BFF35F8F0022344B1A6089F3108803B0B3
:101BB000F0BCBB46B246A946A046F0BD1500EAE718
:101BC0009342CAD010F0FCFDC7E7802351462E4A4D
:101BD000D150E0E706215956002922DB4A0050186F
:101BE000800034188046A0689860E079D87106209B
:101BF00020569871002825DBA488F01A6405241566
:101C000044440019E0240005400D2402204398803C
:101C100052181E4B9200B6181A781970B271B1E7BB
:101C20001300594600290FD1FF3191711849918055
:101C300016490A789A71174A9B1B5B415A43120D49
:101C40000A709FE71448E2E7144A1549D21A083A85
:101C50005002400D01439980124952080A43DA802C
:101C600090E70621515613000029B7DA5A46002A98
:101C7000EAD14546DCE7C046240100D000ED00E093
:101C8000CD010010C411002000E100E054DB002071
:101C900001BDFFFFAAAA000001BD0000FE11002047
:101CA00000F0FFFF00F8FFFF10B5830804000320D9
:101CB0002040FF24054AC0009446844081409B0098
:101CC00063441A68A2430A431A6010BD00E400E0AE
:101CD00070B501240443EFF30581EFF3108C72B665
:101CE000214A1368002BFCD0BFF35F8F1F4B050008
:101CF0001F4AED1A6D416A43120D1E4D8900AE68F0
:101D000052B27658A6421CD00621595691421CD098
:101D100012215956914222D01E215956914220D06B
:101D20002A2159560324914210D0134B19781A7066
:101D30008171BFF35F8F00220B4B1A608CF3108808
:101D400070BDAB680D4C5C50EFE7002461000919D1
:101D500089005B18FF21997109499980E5E7012401
:101D6000F4E70224F2E7C046240100D0C4110020A9
:101D7000AAAA000000ED00E054DB0020CD01001015
:101D800001BDFFFF1F2110B5091A0248FFF780F8B7
:101D900010BDC0465FDB002000B5074B83B00100DB
:101DA0000093002205230548FFF724F8002801DBF3
:101DB0001F23181A03B000BD247501105FDB00203B
:101DC00070B504000E001500FFF77EF8010020003A
:101DD00000F006F8A680E580BFF35F8F70BDC046B7
:101DE000024B9C466144890001607047400000340A
:101DF000F8B5134D134E2C00FF27B5421ED22368B1
:101E0000002B0FD0FFF760F801002800FFF7E8FF74
:101E1000A780BFF35F8F0834B4420FD22368250038
:101E2000002BEFD1FFF750F801002800FFF7D8FF93
:101E30002771BFF35F8F0834B442EFD3F8BDC046BB
:101E400098120020A012002010B50400FFF73CF803
:101E500001002000FFF7C4FFFF232371BFF35F8F52
:101E600010BDC04610B50400FFF72EF80100200099
:101E7000FFF7B6FFFF23A380BFF35F8F10BDC046FF
:101E800010B504000120FFF72BF8044B9C4660447A
:101E900080002060BFF35F8F10BDC046400000345B
:101EA000034B9C46614489000160BFF35F8F70471C
:101EB00040000034F8B5DE464E4657464546E0B58C
:101EC0008B4605000A991800160010F085FD0A9B44
:101ED0006C001F02324B64199C46A4006444636882
:101EE00081469F4200D967602B1FDBB29846012BC9
:101EF00030D9C02380229B01E31812011A60294BBC
:101F0000AD0059599A4600291BD1226876017240CA
:101F1000E0268023164042465B01E3181E60012A3A
:101F200030D9802380229B01E31812011A605346A6
:101F30004A4667605A51F0BCBB46B246A946A04625
:101F4000F8BD586910F048FD431C5800C01803380C
:101F5000FDD2DAE75B46012BCBD1C02303229B01E4
:101F6000E3181A60023AA3681A42FCD0E023226800
:101F7000760156401E4080230A4A5B019246E318D0
:101F80001E60AD005A462168514003220A401A6083
:101F900001225B469A40A3681A42FCD0C1E7C046C2
:101FA00000800040681D0020F0B546464F46D646EA
:101FB000C0B51F00344B44009C462418A400644460
:101FC000636888461600FF2B02D880235B0063609D
:101FD000031FDBB29A46012B30D9C02380229B011C
:101FE000E31812011A60294B8500595999460029B6
:101FF0001BD1226876017240E026802316405246AB
:102000005B01E3181E60012A30D9802380229B01E6
:10201000E31812011A6080235B0063604B465F5136
:10202000E0BCBA46B146A846F0BD586910F0D4FCF1
:10203000431C5800C0180338FDD2DAE74346012B91
:10204000CBD1C02303229B01E3181A60023AA36894
:102050001A42FCD0E0232268760156401E408023BD
:102060000A4A5B019146E3181E60850042462168DA
:10207000514003220A401A60012342469340A2685D
:102080001342FCD0C1E7C04600800040681D00201C
:10209000014B8000C0587047681D002010B54024D7
:1020A000084A83009A181268C0005440C022224097
:1020B000054CA44663441A60044B9C46604441604E
:1020C00010BDC04604C0014004D0014000400140A2
:1020D0000B4B80009C46604400290ED10023043144
:1020E000002A00D119008022036852015940944609
:1020F0000C2360440B40036070470C210823EFE77A
:1021000004C001408000002905D0064B9C460223F4
:10211000604403607047044B9C46022360440360A4
:10212000F8E7C04604E0014004F00140D0231B065C
:102130001B6830B50500581E834110485C42844638
:1021400007203023284023408000EC0881402000F5
:102150000B4D3C3063448000A40041511B19002A00
:1021600005D08022920194466344196030BDC0229C
:102170009201944663441960F8E7C046004101406B
:1021800000400140D023F0B5C64604001B06984627
:102190001B680C4F9B00F8580D00160000B5044258
:1021A00009D1044332002900FC500D20FFF7A6FBA3
:1021B00080BCB846F0BD10F003FB43461B689B0093
:1021C000F858EEE7C8D9002010B504000D20FFF73D
:1021D00089FCD0231B061B6802499B005A58A24366
:1021E0005A5010BDC8D900200123D022834040217D
:1021F000120693629361094A83009A181268C0001C
:102200005140C0220A4006498C4663441A60054B7F
:102210009C460523604443607047C04604C00140AB
:1022200004D0014000400140F8B5040020481D00E2
:1022300017000E0010F0D0FB0100380010F0CCFBAE
:10224000069B29041B0319432368002B1EDB194B33
:10225000194DE21853425A4180235B019C461203F8
:10226000164B62441A60164B1A6017002B689F4386
:10227000FBD1144B2660E2182123A0601360236871
:10228000002BFCDA0823E1601360F8BD3F232268CD
:102290001340B342DBD1A3681B051B0D8342D6D18B
:1022A000EE22E368D20213408B42D0D1EDE7C04664
:1022B000001BB7000040FDBF08C0004000E0004028
:1022C00000F000400430000010B5140080221B4BC9
:1022D000D2051A6000281AD00123194A1843194B55
:1022E000DA61194A42401A62596298628022134B9D
:1022F000D2051A601549164A1160E022D2041A600C
:10230000002C07D18022134B12061A6010BD0D4B12
:10231000D861EBE763011B1B9A008023121912019D
:102320005B049A4200D30C4A0C4B1A60054B5A606E
:102330008022084BD2051A60E8E7C04600B005408D
:10234000D3C007B0008005402D3FF84FFCFF0100CF
:102350000820014000A00540FFFFFF00643000207E
:102360008023024A9B000B43D362704700800540E4
:10237000AA23064A1B0113608D235B00D360044926
:10238000044B19605368002BFCDA70470040024090
:1023900000B0FA000060024010B501F0BBFB00F095
:1023A0001FFB00F0E3FC00F08DFD05F0B5FB01F034
:1023B00041FC00F057F905F01FFB10BD40BA80B298
:1023C0007047C04600BA7047F8B54746CE4680B55C
:1023D000070104003818000110308146404D414E7D
:1023E0002B688846B144002B02D02A7AA24258D0EA
:1023F000EB68002B02D02A7DA2424BD0AB69002BA8
:1024000003D02022AA5CA2423DD06B6A002B03D0ED
:102410002C22AA5CA2422FD03B191B01F318DB7BB4
:10242000002C04D0B27A022A41D0012C06D08D2291
:102430005200B25C022A43D0022C05D02A4AB25C78
:10244000022A43D0032C03D0284AB25C022A42D08D
:10245000032B0DD8264D9B00585905F04BFE00224A
:102460003C1924013619F37B9B005A510423F37362
:10247000C0BCB946B046F8BD41464846AA6A98472E
:1024800000236B62C8E741464846EA699847002343
:10249000AB61BAE7414648462A6998470023EB609A
:1024A000ACE748466A68984700232B60A0E7F27BB8
:1024B0009A42BAD104233C1924013619F373D7E7A1
:1024C0002022FF32B25C9A42B6D1F3E7094AB25CED
:1024D0009A42B7D1EEE7084AB25C9A42B8D1E9E72E
:1024E000B0270020E82700202A0200003A0300005D
:1024F000A02700202F0200003F030000F0B5DE46B9
:102500004E46574645468346E0B5030187B04F4ADD
:1025100001935B441B01D618F27A012A00D992E09C
:102520004B4992008C58002C00D17FE010331D00E5
:10253000464B9C466544280014F09CFEA0221230B5
:1025400081B29200362000F0CDFE8146002866D090
:1025500003AC0C220021200010F010FE3089FFF7A0
:102560002DFF01232080A3700C22FF332100484659
:10257000A38001F075F9374B0C269A464F46013D72
:102580006B1C98466B78002445462E2B06D156E0EE
:102590006B7801340135E4B22E2B01D0002BF7D13A
:1025A0004346EB1A9BB299462300F318534542DC8D
:1025B00022003100380001F007FA731C4A469BB232
:1025C00034194146380001F087F9A3B22A785E1C1D
:1025D000B6B2002AD4D11C003100380001F0F4F961
:1025E0001D4B02340422029302A9A3B2380001F069
:1025F00073F9164A019B944615495B441B016344D9
:102600008C46DA7ADB7B15499B009200585862446D
:102610003523390005F0F8FC380000F0C5FF07B09D
:10262000F0BCBB46B246A946A046F0BD0021FFF76C
:10263000CBFEB472F3E7380000F0B6FFEFE70022FC
:1026400000239146B1E70648FDF7C4FFE8270020C4
:10265000E0270020FEFF000000010001A02700206D
:10266000407501107047C04682B0012801D902B000
:1026700070478000002903D00A68044BC250F6E777
:10268000034A024B12680192C250F0E7E027002093
:10269000E08D0110F0B546464F46D646464BC0B5D4
:1026A000464E8D273400002598467F00A37A022BE2
:1026B00035D02CD8002B1FD0414B9946414B9A4620
:1026C000FEF758FAB37A80B2022B40D0F35D022BAA
:1026D00043D04B46F35C022B48D05346F35C022BAD
:1026E0004DD002230122A37200232081E37228002F
:1026F00022736373FFF702FF01351134EDB2FF342B
:10270000042DD3D1E0BCBA46B146A846F0BD032B98
:102710004ED12368002B13D10023A372ECE7237B57
:10272000013BDBB22373002BE6D1637B0133DBB2C9
:102730006373042B29D023732800FFF7DFFEDBE748
:10274000013B2360002BD7D10023A372D4E7338948
:102750008342B5D0F35D022BBBD11733FF33F35A5D
:102760008342ADD04B46F35C022BB6D18A239B004B
:10277000F35A8342A4D05346F35C022BB1D1CE234B
:102780009B00F35A8342ACD19AE7E37A002B08D13D
:1027900042465268002A04D001226373E272227317
:1027A000CAE700212800FFF70FFE0023A372A3E76A
:1027B0000548FDF70FFFC046E0270020E82700206E
:1027C0002A0200003A03000074750110F0B583B0CE
:1027D0006B469C1D0023238001331E0006401842D7
:1027E00005D0002903DD037801396370013003222D
:1027F00013000340104205D00023012938DD03886F
:102800000239023007294BDD083907220F009743B0
:10281000020005000832BF182A689A189A429B41A4
:102820005B42D2186B680835D318934292415242EA
:102830009B18AF42F0D1CA08551CD200ED00891A8E
:102840001A044019120C1B0C9B18012910DD028878
:102850009B188A1E012A05DD45885B19052901DDC3
:1028600081885B1851084D1C6D0049004019511AB0
:10287000012901D1027822702288D218130C120487
:10288000120C9B18180C1B041B0CC018002E04D033
:10289000030600041B0C000E184380B203B0F0BD09
:1028A0001A00D0E7F0B54F46D6464646C0B5914629
:1028B0001A68089B8A46196804000B041B0C090C53
:1028C0005B181104090C5918130C5B18180C1B0425
:1028D0001B0CC318180C1B041F0CC719002C21D08B
:1028E000FF2300260125984661896068FFF76EFF87
:1028F000C019030C0004070CDF1963891D4207D0BF
:1029000042463B06380A1B0C104003431F006E4032
:102910002468002CE8D1002E04D03B063F041B0C99
:102920003F0E1F43534698B2FFF748FD0400484648
:10293000FFF744FD2018C019030C0004000C181800
:10294000030C0004000C1818C04380B2E0BCBA4667
:10295000B146A846F0BDC04610B582B0049C0094B4
:10296000FFF7A0FF02B010BD10B5FFF72FFFC04367
:1029700080B210BDF0B5C646040000B500282AD0CC
:10298000FF23002600270125984661896068FFF72C
:102990001DFFC019030C0004070CDF1963891D42D9
:1029A00007D042463B06380A1B0C104003431F0069
:1029B0006E402468002CE8D1002E09D03B06380474
:1029C0001B0C000E1843C04380B280BCB846F0BD5B
:1029D000F84380B2F9E70148F7E7C046FFFF00007F
:1029E00003220A4B002103339343094A0948136029
:1029F000FA22120119719918016001201A600871F8
:102A000005499950054A13607047C04614CA002012
:102A10000CCA002010CA0020A00FA00F60300020B8
:102A2000F0B5D6464F464646C0B500285DD0830770
:102A300000D069E00300394A083B12689A4260D826
:102A400037490C30096881425BD31879002861D07E
:102A5000FA201D88000185420CD85C88A246844279
:102A600008D8981A80B280461619A04205D030883E
:102A7000404502D02B48FDF7ADFD5019814202D0F0
:102A800044884445F6D100241C71274CA446246890
:102A90009C4202D9644623601C00994237D9834284
:102AA00013D00779002F10D181420ED0A04224D03C
:102AB00005881D800188FA200001814205D040462A
:102AC0005118488059888A465618B3420DD031793A
:102AD00000290AD1A3420DD0FA2135801B880901B3
:102AE0008B4202D0D31852465A80E0BCBA46B14657
:102AF000A846F0BD61460E60EEE761461C000B6023
:102B0000D6E70A48FDF766FD0948FDF763FD094869
:102B1000FDF760FD0848FDF75DFDC0460CCA0020CA
:102B200010CA0020FC75011060300020B87501103B
:102B30009475011030760110D4750110F0B5C646B9
:102B40003B4BCA1C00B513400B2B3FD9FA22120194
:102B500093423ED899423CD8364A146884425ED8A3
:102B6000354A126882425AD90500083D291B8AB2AB
:102B700090462E8841463200083A521A92B29A4242
:102B800050D320D0A7193979002924D1FA22120173
:102B900096424AD03A88294E9446424608329B18BB
:102BA00032689BB2BA4237D0E21861461180414682
:102BB00000265180FA2116712B80128809018A4261
:102BC00001D0A218538080BCB846F0BD0C239942B6
:102BD000C2D90020F7E71F001437BFB2BA42F2D3C0
:102BE000424608329B18FA229BB2120196421CD030
:102BF000124FE2183968914200D93A6041460027E5
:102C00005180FA21177116802B80128809018A429F
:102C1000D9D0A4186380D6E7E2183260C5E7084827
:102C2000FDF7D8FC0748FDF7D5FC0748FDF7D2FCB7
:102C3000FCFF00000CCA002010CA002060300020F9
:102C40004C7601106476011084760110F0B5D646FA
:102C50004F464646C0B500282FD03D4CC31C1C40F3
:102C60000B2C30D9FA231B019C4226D8A04224D831
:102C7000384BFA229C461B6812019A46364B121BAF
:102C80001E6853469B1B98B21B0490461B0C9A422D
:102C900013D908277F4208E01588FB1A5B19A34265
:102CA00013D22B002800434507D2F21811790029CE
:102CB000F2D0108803004345F7D30020E0BCBA46A9
:102CC000B146A846F0BD0C24D0E71427B846A0446E
:102CD0004746BFB2BB421CD2012308341371A4B2D1
:102CE0001E4B1868130092450ED0A418A0422CD396
:102CF000100008309307E1D01948FDF76BFC1B88E2
:102D0000F318197900291AD09842F8D1634618604F
:102D1000EBE7FA270834A4B203193F019BB2B94686
:102D2000BB420FD0F718397101213D8078801380A4
:102D3000117139884945D3D071184B80D0E761466D
:102D40000B60D2E70748FDF745FC0748FDF742FC5A
:102D5000FCFF0000603000200CCA002010CA0020D8
:102D6000C876011084760110987601102423002281
:102D7000F0B54746CE469046994603320425944620
:102D800080B5124F124B134CB94441463A6821604A
:102D9000614603338B43002D0BD01688002100229F
:102DA00000E0030001321960981919002360AA425B
:102DB000F7DB0437B94504D03A68946853685588FE
:102DC000E3E7C0BCB946B046F0BDC046BC770110D1
:102DD000A0C10020C8C9002010B5082810D80B4B8E
:102DE0008000C458FDF71AFBA3681C68002C03D0B0
:102DF00022681A60A30705D1FDF712FB200010BD61
:102E00000024FBE70248FDF7E5FBC046BC77011054
:102E10000C77011070B50C0008280ED800290CD0D2
:102E2000084B8000C5588B0708D1FDF7F7FAAB684F
:102E30001A6822601C60FDF7F3FA70BD0248FDF7C6
:102E4000C9FBC046BC770110307701100C2040420E
:102E50007047C04670B505000C00160082B000290E
:102E60002AD043680A689A4201D102B070BD33602B
:102E7000300001A9019201F04FFE300001A905F0D8
:102E800065F901A9300000F025FE392322686A6047
:102E9000E95C343B0B40052B05D0EB69002BE4D0FB
:102EA00028009847E1E7002AF7D00B07F5D528005E
:102EB000291D09F0CDF9F0E70148FDF78BFBC0466D
:102EC000E07701107047C046F0B5C64600B5040073
:102ED0000E001700984682B000286AD0099B002B8C
:102EE00067D0002900D174E0002F00D16FE0434685
:102EF000002B69D03F4B002563610022392320005D
:102F00006560A560E56025860021E2542830042232
:102F100010F034F9089BE56163623C232562364D6D
:102F20002A78E2540A9B23613368002B3AD131009E
:102F3000200001AAFFF78EFF0122A168E0683B682C
:102F4000994200D0A36043461B68984200D0E360DA
:102F5000002A33D02000099B9847002829D1274B0D
:102F60003C2698461F683C23E05C00239C46FF28D3
:102F700002D163460020A355002F2CD0BC4236D08E
:102F80003B00FF2207E01B68002B24D09C422ED080
:102F9000013A002A0AD0995D8142F4D10130C0B2D1
:102FA000A055E4E7002000210022C8E71448FDF7FF
:102FB00011FB002002B080BCB846F0BD31002000FB
:102FC00001AAFFF747FFC5E70E4B984692E70D4F62
:102FD0008DE70C4E88E7FE2807D00130C0B243468B
:102FE0002870276020001C60E4E70020F7E706480F
:102FF000FDF7F0FA4D2E001057DB0020E8C9002045
:1030000004780110E08D0110F0770110F0B5040094
:103010000D0016001F0083B000294ED0002E4AD0AC
:10302000002F46D02B680022002B0CD03368A168FB
:103030008B4200D0A3603B68E1688B4230D1002A0C
:1030400031D003B0F0BD616801220029EED068469E
:10305000009101A9019301F05FFD684601A905F007
:1030600075F801A9684600F035FD39232A686260C9
:10307000E15C343B0B40052B07D1002A05D00B0740
:1030800003D52000211D09F0E3F8E369002B01D0EE
:10309000200098473368A16801228B42CBD0C9E752
:1030A000E360002ACDD16A4629002000FFF7D2FE56
:1030B000C7E7034FB6E7024EB2E7014DAEE7C046A1
:1030C000E08D011070B5041E16D04368002B17D197
:1030D00039220121A35C194224D11D4B1A68A24256
:1030E0002ED01C4A1368A34204D126E01A68A242DB
:1030F00003D01300002BF9D170BD22681A60FBE7E2
:10310000051D0021280001F007FD0021280005F021
:103110001DF80021280000F0DDFC39220121A35C0C
:103120001942DAD018008843A0541B070BD4E36976
:10313000002BD2D020009847CFE723681360DBE74D
:1031400000221A60CDE7200008F0E0FCEFE7C0465F
:10315000E4C90020E8C90020014B18607047C04650
:10316000E4C9002070B5041E15D03925435DDA0787
:1031700011D401221343DBB24355C269002A01D0A6
:103180009047635D05221A40052A04D16268002A2F
:1031900001D01B0700D470BD2000211D09F058F894
:1031A000F9E7C04670B5041E03D03925435D5A07C0
:1031B00000D570BD04221343435505F06BFF052372
:1031C000625D1340052B05D0236A002BF1D020004F
:1031D0009847EEE76368002BF6D01307F4D520007C
:1031E000211D09F035F8EFE710B500280AD0392283
:1031F0000421835C194205D08B438354036A002B5E
:1032000000D0984710BDC046021E0ED0084B18686B
:10321000002809D03C2102E00068002804D0435C6B
:103220000133DBB29342F7D170470020FCE7C04680
:10323000E8C90020F8B505000026002826D00F2791
:103240000BE0012B24D0002B2AD12800FFF7E8FB4C
:103250000136F6B2002C19D02500FDF7DFF8AC7B63
:10326000002C1AD0013CE4B2AC73FDF7D9F8002C65
:103270000CD12B7B2C683B40022BE2D1290008208B
:103280000136FFF7C7FDF6B2002CE5D13000F8BDDE
:1032900029000720FFF7BEFDDAE70348FDF79AF99A
:1032A0000248FDF797F9C046347801104C780110B8
:1032B00010B5FDF7B3F80022084B1A70FDF7B0F80F
:1032C000074B1868002803D107E0C068002804D025
:1032D000436F002BF9D001F06DFC10BD59DB0020CD
:1032E000F8DA0020F0B5C1234F464646D646804660
:1032F000C0B50D00170084B25B009A423FD008D8D9
:103300001400433BFF3B9C43012C6AD03C48FDF733
:1033100061F9A0239B009A42F8D1E31C0324CA1C44
:10332000A343A2439B189BB21800103080B2934273
:103330001ED382421CD8FFF789FC061E19D0002339
:1033400003604346C71813372E4B2904A7430D4388
:1033500047608560C3600CE0FDF760F801222A4BEE
:103360001A70FDF75DF8002E02D03000FFF762FF03
:1033700000263000E0BCBA46B146A846F0BD0023A6
:103380009846224B00269A4600230327994607E0D9
:1033900043466D1AADB21860002DEAD08046002475
:1033A0000820FFF719FD0028D6D05246E31CBB4386
:1033B000D31A1A1C9BB2AB4200D92A1C4B460419E3
:1033C00003601334124BBC4391B2446005814281C7
:1033D000C360002EDCD16D1AADB20600002DDDD128
:1033E000C7E70720FFF7F8FC061EC2D00023290418
:1033F0000D4303604360856007734373C481B8E77E
:10340000607801108000010059DB0020EC0500000D
:103410008200010070B5041E34D002898A421CD992
:103420000D008A1A07E023896D1A9B1823812468EE
:10343000ADB2002C20D06189A942F4D3237B1B07B5
:1034400001D1A9420AD1290420682943A16000289A
:1034500001D0FFF7EFFE0023236070BD63682000FA
:10346000191B691889B2FFF769FB002807D084424D
:10347000E9D00648FDF7AEF80548FDF7ABF805487A
:10348000FDF7A8F80448FDF7A5F8C046C878011074
:1034900094780110AC7801107C780110030070B5AD
:1034A000002820D08022520291421AD2002916D040
:1034B00002898CB2A21892B2944212D8057B0120E4
:1034C0007F2D0DD95D68691A1D001035A94207D3FB
:1034D00059605989002064185C811A8100E000203D
:1034E00070BD0120FCE70148FDF774F8E478011095
:1034F00010B5002818D080235B02994212D200290F
:103500000ED043898AB29A420CD844689B1AA446CA
:103510004381038961449A1A41600281002010BDF1
:103520000020FCE70120FAE70148FDF753F8C04608
:10353000E478011010B5002915DB00282FD00029F0
:1035400023D003898AB2D3189BB29A4225D8047B30
:103550007F2C1CD84468611A41604189038152184C
:103560004281002010BD002819D0494243898AB207
:103570009A4212D844689B1AA44643810389614445
:103580009A1A416002810020ECE70020EAE74468D3
:10359000611A04001034A142DED20120E2E70148A2
:1035A000FDF718F8E478011010B5002802D0FFF7F5
:1035B00041FE10BD0148FDF70DF8C046E47801104A
:1035C00003000020002B04D01B68013080B2002BC8
:1035D000FAD1704710B5041E09D0FCF71FFFA37B7A
:1035E0000133A373FCF71CFFA37B002B00D010BD9D
:1035F0000148FCF7EFFFC046F078011010B5002835
:1036000014D0002912D00368002B07D002890C893E
:103610001219028118001B68002BF7D10289438917
:10362000934204D10A8901609B18038110BD0148AF
:10363000FCF7D0FF0479011010B50C0000281FD052
:1036400000291CD00368002B07D002892189521859
:10365000028118001B68002BF7D10289438993422D
:1036600014D1228904609B180381FCF7D7FEA37B49
:103670000133A373FCF7D4FEA37B002B03D010BD52
:103680000029FCD0F1E70348FCF7A4FF0248FCF74F
:10369000A1FFC046F078011004790110F0B54F4643
:1036A000D64646468146C0B5884692461F00002948
:1036B00000D184E00B89934200D280E0002800D141
:1036C0007DE053460289FB189A4200DA77E0002633
:1036D00044890CE043465A891B899A423DD04B46A7
:1036E0005C891B899C424DD05346002B57D04346E2
:1036F0005B89E41B9B1B9C4200D91C005546A245DC
:1037000000D925004B465B682A00D81943465B6800
:103710007F1999190FF038FD534676195D1BABB22E
:103720009A464B465C89BC424CD343465B89B342C4
:103730004BD305D143461B6800269846002B17D073
:10374000BC42C7D14B461B689946002B1FD043464D
:103750005A891B8900279A42C1D143461B68002B16
:10376000BDD006204042E0BCBA46B146A846F0BDF6
:103770005346002B23D1BC4219D04B461B899C4297
:103780000DD100264B461B68002BADD0E9E7534610
:10379000002B14D143461A895B899A4201D000203C
:1037A000E1E743461B68002BDBD10020DBE74B46FB
:1037B0001B689946002BF2D000275C89DDE71020BA
:1037C0004042D0E70248FCF705FF0248FCF702FF41
:1037D000347901104C79011010B5002904D0002370
:1037E0000A89FFF75BFF10BD10204042FBE7C0468F
:1037F000F0B5C6460500884616001900002700B53A
:10380000002828D04346002B25D0002A05D122E0ED
:103810002D68091B89B2002D1DD06C89002901D0AB
:10382000A142F5D2641AA4B2321CA64200D9221CCD
:103830004346D8196B6894B29C46361B22006144FB
:10384000E719B6B20FF0A0FCBFB22D68002E02D06F
:103850000021002DE1D1380080BCB846F0BDC04643
:10386000F8B5CE46474605008846914680B5002803
:1038700024D0002922D0038993421CD316000027AC
:10388000002A02D112E0002D1BD06C89B44200D96D
:10389000340043466868D91922000FF075FC361BC6
:1038A0002D683F19002EEED1B9450DD10020C0BCC6
:1038B000B946B046F8BD01204042F8E7102040422A
:1038C000F5E70348FCF786FE0248FCF783FEC04696
:1038D0006879011080790110F0B5D6464F4646460A
:1038E00004008A46C0B5002805D13AE024685B1B75
:1038F0009BB2002C35D065899D42F7D921899F184C
:10390000B9422EDBE91A8A4232DD8AB290466268F9
:103910005146D0187D1B42460FF036FCABB299469B
:10392000002B1CD02568002D29D02B894B4518D39E
:103930004F46002601E0002D24D06C89BC4200D9FE
:103940003C004346F1186868220051440FF01CFC0B
:103950003F1B2D683619002FEDD1B14515D1002040
:1039600001E001204042E0BCBA46B146A846F0BDA5
:1039700060685146C0180FF007FC0020F3E71020E4
:103980004042F0E70248FCF725FE0248FCF722FE21
:1039900068790110807901100B0070B5150011894C
:1039A0001A00FFF79FFC041E06D0002329002A8975
:1039B000FFF774FE002801D1200070BD0148FCF71C
:1039C00009FEC0469879011005E043898B4205D86D
:1039D000C91A006889B20028F7D1704743685A5461
:1039E000FBE7C046F0B5DE46454657464E468146A3
:1039F000E0B5344F83B03968786909F097FD4B46DC
:103A00005A68314B80461C689B460020557A002C32
:103A10003AD00026844604E0E3682600002B32D02A
:103A20001C00237CAB42F7D1217A002906D03C232D
:103A30007868C35C0133DBB29942EDD14346002B79
:103A400029D02368002BE7D10121637C194203D0E0
:103A5000636839698B42DFD163699A46002BDBD0FA
:103A6000019221004A46194BA069D047002819D17C
:103A70004B465A68019B9A4221D102239C46E36837
:103A80002600002BCCD1604603B0F0BCBB46B2464A
:103A9000A946A046F0BD2368002BD5D079698B429A
:103AA000BAD1D1E7002E08D0E3680120F3605B466D
:103AB0001B68E3605B461C60E6E70120E4E704481E
:103AC000FCF788FD44300020D0D90020543000207D
:103AD000AC79011010B5002811D00268002A0ED070
:103AE00000290CD00B68002B09D0094B1B68002B58
:103AF00005D01C68944203D0DB68002BF9D110BDBF
:103B00000A681A60DB68002BF9D00268F1E7C0464A
:103B1000D0D900207047C04610B5041E23D0037DC5
:103B2000042B05D0072B0FD00020032B00D010BD95
:103B3000200003F029F800280AD10523237520006E
:103B400003F04EFB0020F2E703F01EF8002807D038
:103B5000431CECD10822638B002013436383E6E708
:103B600009232375EBE70148FCF734FDF8790110D0
:103B700070B50600806F002803D0FFF715FD002305
:103B8000B367746F002C18D06068256800280CD0CB
:103B9000FFF70AFD21000420FFF73CF9002D0AD0B1
:103BA0002C00606825680028F2D121000420FFF76E
:103BB00031F9002DF4D1002373670123F46E5B42C9
:103BC0003386002C16D06068256800280CD0FFF7DB
:103BD000EBFC21000420FFF71DF9002D0AD02C007A
:103BE000606825680028F2D121000420FFF712F94F
:103BF000002DF4D1346F002C16D0606825680028A1
:103C00000CD0FFF7D1FC21000420FFF703F9002DB1
:103C10000AD02C00606825680028F2D12100042019
:103C2000FFF7F8F8002DF4D100236822F36633671C
:103C3000B35270BD10B5FCF79DFF044B80049C4649
:103C4000800C034B6044188010BDC04600C0FFFFCD
:103C50001012002010B5037D0100012B03D00220BB
:103C6000FFF7D8F810BD0148FCF7B4FC047A011046
:103C7000F8B5031E1FD0078DC16A456A5C8E114ED0
:103C8000781A4019221CB4420BD892B2821A0CD571
:103C9000491B0CD48022520291420FD20020598538
:103CA000F8BD321C92B2821AF2D45F85F8E7002286
:103CB00000205A85F4E70448FCF78CFC0348FCF725
:103CC00089FCC046D0160000187A01103C7A011019
:103CD000F8B500281DD0037D012B34D0028D1D4B7B
:103CE000511889B299421BD91900466A458E1A4F5C
:103CF000C46A0185F3182A1CBD420BD892B212196E
:103D00009A1A11D5A41B1BD48022520294421DD2B0
:103D10004485F8BD3A1C92B212199A1AF2D403E003
:103D20008A42E1D80B00E0E70C4A41851B1B934215
:103D3000EFD90222438B1343438303F051FAE8E7A0
:103D400000234385E5E70648FCF744FC0548FCF7FB
:103D500041FCC046A02D0000D0160000670B0000FB
:103D6000587A01103C7A0110F0B5DE4645465746B8
:103D70004E46E0B5BF4DC04A2B6887B001332B607B
:103D8000BD4B1B7801331370BC4B9B465B461C68D4
:103D9000002C00D1CCE000230593237D002B00D123
:103DA00012E2012B00D115E20A2B00D10FE2B24A38
:103DB000A17F1278914200D158E1A2774222A25C01
:103DC000022B00D1FDE00B2A00D9F7E0A122A65C6E
:103DD000002E00D15AE1226F002A00D012E2E26EDA
:103DE000002A00D10BE2A222A25C0B2A00D9E5E056
:103DF000A020A34A9619013E3178225C8A4200D263
:103E00008DE16023E15A002900D0B9E0200003F0E1
:103E1000F1FC002800D0BFE0A0230022E254A13230
:103E2000A35C062B00D9B7E0012700260133A35479
:103E3000237D062B00D1B5E008210800627A1040EE
:103E40008046114227D0042B00D05EE12B68226A05
:103E5000FA219B1A99469423E35849009A469823DD
:103E6000E35898469C23E0584346584350440EF08C
:103E7000B3FD814500D93EE1A3274346E05DFA2129
:103E800043431800490050440EF0A6FD0023984615
:103E9000814500D94AE1676F002F0AD02B68226A5A
:103EA0009A1A4023E15E4B005B185B009A4200D3F4
:103EB00005E1237D032B00D18AE0092B00D0AEE081
:103EC0002B68226A9B1AF02B00D887E09023E658D3
:103ED0002000FFF74DFE059B002B00D1ADE05B46B7
:103EE0001B68A34200D17EE1059BE268DA6043468D
:103EF000002B00D0ADE023699946E3689846237D06
:103F0000012B00D16CE121000220FEF783FF00238A
:103F10005C4C2370002E07D00D2148464942B04723
:103F20002378002B00D031E74446002C00D034E742
:103F3000554F00243968002904D11AE00C00C968E3
:103F4000002916D00B7D0A2B00D046E12B680A6AA7
:103F50009B1AF02BF2D9002C00D1DAE03B688B429F
:103F600000D143E1CE68E6600220FEF753FF311E28
:103F7000E8D107B0F0BCBB46B246A946A046F0BDAA
:103F8000200002F01FFD002800D045E7200003F0CC
:103F900027F9002800D03FE7237D01270026062BC4
:103FA00000D049E7638BDB0605D52B68226A9B1A94
:103FB000282B00D93E00002398466CE702270126F3
:103FC00037E7052A00D801E700230126984662E773
:103FD0002B68226A9B1A282B00D977E7002E00D085
:103FE00074E7237F627F0133DBB2E66823779A426E
:103FF00012D80023234A237713708C33E358002B05
:1040000000D17CE02100206998471E4B1B78002BD3
:1040100000D0BBE6002872D00594340085E7002E5E
:10402000DFD09022A658012B00D854E70A2B00D0ED
:104030004EE7059B002B00D051E75B461B68A3426F
:1040400000D0D9E05B46E2681A604346002B00D1FD
:1040500051E7238B626A216D0293E38A200001936A
:10406000231D0093230002F085FF44E70594E468D4
:104070005BE7C04608DB00205EDB0020F8DA0020AA
:10408000DC7D01105CDB00200CDB00203022A15E17
:104090005E48228E824202D8013211B2218640222D
:1040A000A25E01278A4200DDC3E6200002F094FEF2
:1040B000002848D0236F002B42D0237DB9E67868D2
:1040C000A1463C6800280CD0FFF76EFA39000420A6
:1040D000FEF7A0FE002C0AD0270078683C68002874
:1040E000F2D139000420FEF795FE002CF4D14C46A5
:1040F00000236367DDE601233E009846CBE62000FF
:1041000003F06EF8059434000FE7072B00D19DE60D
:1041100051E73B688B426CD1CE683E6024E70132A8
:10412000D2B222548A4200D237E76AE6200003F076
:10413000F1FA002800D0AEE6E35D0133E355AAE6CC
:10414000E36E002BB9D0237D022B13D03C22A35E5B
:104150003E21625EDB109B184222A15C0A1C0C29E6
:1041600029D82B49D2B28A5C9340284A934220DC5A
:104170004022A3520023482123866033E25A605A2A
:10418000131C824200D9031C4A209BB25B082352B5
:10419000618E4A0092B2934200D2225248230022FA
:1041A000E1522233E252200003F050FA0127237D2E
:1041B0003FE6184BDCE70C221549D2B28A5C9340EB
:1041C000124A9342D4DDF4E71348FCF703FA13488C
:1041D000FCF700FA1248FCF7FDF91248FCF7FAF96F
:1041E0001148FCF7F7F91148FCF7F4F91048FCF70F
:1041F000F1F91048FCF7EEF90F48FCF7EBF90F481E
:10420000FCF7E8F90E48FCF7E5F9C046FE7F000030
:10421000BC7D0110FF7F0000807A0110D87A011068
:10422000AC7A0110C87B0110047A0110707B011078
:10423000F87B0110207C01109C7B0110387B011061
:10424000047B011070B5041E16D060682568002834
:104250000CD0FFF7A9F921000420FEF7DBFD002DAB
:104260000AD02C00606825680028F2D121000420C3
:10427000FEF7D0FD002DF4D170BDC04610B5041E70
:1042800008D04068002801D0FFF78EF921000420F3
:10429000FEF7C0FD10BDC04670B5051E0DD0042050
:1042A000FEF79AFD041E06D0102229000EF06CFFC6
:1042B0006068FFF78FF9200070BD0148FCF78AF9AC
:1042C000487C011010B5002806D0037D012B03D9CE
:1042D0000A2B01D0FFF74CFC10BDC04610B50C1ED8
:1042E00047D0002848D003688B4204D12FE0DA6819
:1042F000A24224D01300002BF9D10023E360237DD8
:10430000002B0FD1638BDA0729D4E36E002B36D153
:10431000236F002B36D1636F002B36D1002323751A
:10432000E38210BD0A2BF0D0012BF7D02000FFF75D
:104330001FFC237D0A2BE8D0012BEFD0E2E7E268D7
:10434000DA600023E360237D002BEBD1DAE7CB6852
:1043500003600023E360237D002BE3D1D2E7022238
:1043600013436383200002F03BFF237D012BD5D054
:10437000CBE70748FCF72EF90648FCF72BF906486F
:10438000FCF728F90548FCF725F90548FCF722F960
:10439000647C0110807C0110A07C0110B87C0110AD
:1043A000D47C0110F0B54E464546DE465746E0B592
:1043B00005000E0087B0002867D0037D012B00D1D7
:1043C000B3E00A2B00D1A1E0026D9246426A059249
:1043D00090228258934602699146002B63D1C38A8A
:1043E00000269846002B67D0534A1368834257D162
:1043F000C368136000232C6F98460026EB60002CE6
:104400005DD1EC6E002C16D06068276800280CD0B7
:10441000FFF7CAF821000420FEF7FCFC002F0AD0A9
:104420003C00606827680028F2D121000420FEF7D4
:10443000F1FC002FF4D16C6F002C16D06068276857
:1044400000280CD0FFF7B0F821000420FEF7E2FCB2
:10445000002F0AD03C00606827680028F2D12100B4
:104460000420FEF7D7FC002FF4D1002E41D12B7D84
:10447000012B5DD029000220FEF7CCFC5B46002B0F
:1044800003D00D2148464942D84707B0F0BCBB468F
:10449000B246A946A046F0BDDA68AA4242D013004F
:1044A000002BF9D1A6E7C38A010024489846FFF7FC
:1044B00015FF0122224B1A702C6F002CA1D06068CE
:1044C000276800280CD0FFF76FF821000420FEF7C2
:1044D000A1FC002F95D03C00606827680028F2D12D
:1044E00021000420FEF796FC002F00D189E73C0054
:1044F000F2E72B8B51460293434601932B1D009309
:1045000028002B00059A02F035FDB0E701000D48A8
:10451000FFF7E4FE2B7D012B0AD029000220FEF7D5
:1045200079FCB2E7EA68DA6064E70748FCF752F81A
:104530000648FCF74FF8C046FCDA0020F8DA002005
:104540005CDB00200CDB0020EC7C0110047A011005
:1045500010B50121FFF726FF10BDC046F0B5C646D5
:10456000050000B50220FEF737FC041E2AD0A42265
:10457000002120000EF002FE6423604A6575E252BD
:104580005F4B4022A362FF23E372F93BA352E38710
:104590005C4B5D4A23635D4B1B6823625C4B1B785D
:1045A000A3775C4BA3648423E2505B4A1033E25050
:1045B0005A4A0433E25009220433E250200080BCFE
:1045C000B846F0BD0827564E3468002C0AD02000AB
:1045D000438BE4681F42F8D0BB434383FFF79CFA48
:1045E000002CF4D14F4B1868002812D0474B1C68A0
:1045F000036AE11AC368002B08D01A6AA21A914212
:1046000001D811001800DB68002BF6D10121FFF75B
:10461000C9FE0220FEF7E0FB041EA8D13368002B80
:1046200016D03A4A0021106802E0DB68002B09D05E
:104630001A7D092AF9D11A6A821A9142F5D8110015
:104640001C00F2E7002C03D000212000FFF7AAFE97
:104650000220FEF7C1FB041E00D088E73368002B60
:1046600016D02A4A0021106802E0DB68002B09D02E
:104670001A7D082AF9D11A6A821A8A42F5D31100E2
:104680001C00F2E7002C03D000212000FFF78AFE77
:104690000220FEF7A1FB041E00D068E76BB2002BDE
:1046A0002ADB002D21D02A003368013AD2B2002B38
:1046B0001BD016490F680021884607E0186A3A1A8D
:1046C00090461C000A00DB68002B08D0597D8A4206
:1046D000F4D8F8D1186A3E1A4645F4D3EFE7002C17
:1046E00003D001212000FFF75DFE0220FEF774FBDE
:1046F000041E00D162E73AE77F22D5E7A02D000033
:10470000A02DA02DFFFF1802B548001008DB0020E7
:104710005EDB00200100A02D00DD6D00F82401000B
:10472000F8DA00200CDB002030B5040085B000284A
:1047300000D19FE0037D002903D0042B0DD0072B6F
:104740000BD0012B00D169E0022B4ED0002B3BD0C7
:104750002000FFF7E1F905B030BDA26F002A54D068
:10476000638BDB0600D488E0238B20000293E38A6E
:10477000626A0193231D0093216D230002F0FAFB6E
:10478000237D012B04D90A2B02D02000FFF7F0F97A
:104790003D4A1368A34214D1E36813600023012249
:1047A000E3603A4B1A703A4B1B68A34232D0237D28
:1047B000012B24D13748FBF70DFFDA68A24250D015
:1047C0001300002BF9D1E9E7E38A002B17D0324A16
:1047D0001368A34204D14AE0DA68A24244D013002D
:1047E000002BF9D10023E36009E021002648FFF700
:1047F00075FD0122254B1A70237D012BDAD0022092
:104800002100FEF707FB0020A5E7244A218D9142F5
:10481000A6D196E701F08CFF00209CE7204A0021FA
:1048200010000C3053681B68002B05D0DD6FAC42C4
:1048300012D0DB68002BF9D104329042F2D1210072
:104840001848FFF74BFD237D012B19D003202100D1
:10485000FEF7E0FA00207EE7D967DB68002BE5D1A0
:10486000EAE7E268DA6099E7E268DA60BAE7E36803
:104870001360B7E70C48FBF7ADFE0C48FBF7AAFE48
:104880000B48FBF7A7FEC046F8DA00205CDB0020EF
:1048900000DB0020047A0110FCDA0020A02D0000CB
:1048A000CC7D011004DB0020207D0110407D011033
:1048B0005C7D0110F0B5C6460C00150000B500295E
:1048C0004ED0002A2AD00B7D012B4CD01389098DA4
:1048D000284ACB189BB293421CD913009046676AB2
:1048E000668E254AE06A2385B844311C964200D979
:1048F000111C424689B20918511A18D5C01B13D48D
:1049000080235B02984231D260852800FEF74CFE7E
:10491000002006E09942E0D81A00DFE70020002BD3
:1049200012D080BCB846F0BD00236385EDE76385F7
:10493000124B121A9A42E8D90222638B20001343C9
:10494000638302F04DFCE0E70B7D012B03D01022C6
:104950004B8B13434B8301212000FFF7E5FEE0E77B
:1049600010204042DDE70648FBF734FE0548FBF720
:1049700031FEC046A02D0000D0160000670B0000DD
:10498000587A01103C7A0110F8B5041E32D0002389
:10499000856F6F7B83678433C658002E0CD001006F
:1049A00000232A000069B04700280BD00D301ED02C
:1049B0000520A5674042F8BD2989FFF789F928003D
:1049C000FEF7F2FDBB0610D5238D0C4A934201D0B1
:1049D000013323858423E558002D06D000230022CF
:1049E00021002069A8470D3001D00020E3E70D2009
:1049F0004042E0E710204042DDE7C046A02D000025
:104A0000F0B54F464646D646C0B5204D204F2B78D0
:104A100001332B701F4B9946012398464B461C6867
:104A2000002C1BD008262B78A27F9A421BD042462E
:104A3000A377638B1A421ED11E4216D1E3689A46B1
:104A4000A36F002B07D0002320003B70FFF79CFFD3
:104A50003B78002BE2D15446002CE4D1E0BCBA46AE
:104A6000B146A846F0BDE468F6E7B343200063838F
:104A7000FFF752F8E2E7022213436383200002F0BB
:104A8000AFFB0322638B93436383D5E75EDB002098
:104A90005CDB0020F8DA002010B5FFF7B1FF054A13
:104AA00013780133DBB21370DB0700D410BDFFF7BE
:104AB0005BF9FBE75DDB002010B5002807D0054B54
:104AC000054A10681A6894466044186010BD03488F
:104AD000FBF780FD0C12002008DB0020787D011020
:104AE00010B5002A12D000290AD00B8E002B07D057
:104AF000282B06D9283B1A1C9BB2834203D890B2BC
:104B000010BD0020FCE7021C90B2F9E70148FBF75A
:104B100061FDC046947D011070B504000D000028B1
:104B200002D00368002B00D170BD1F4A1068002816
:104B300005D00268934226D0C0680028F9D11B4BEB
:104B40001868002806D0236802689A4224D0C068FA
:104B50000028F9D1002DE7D02B68002BE4D0144BAE
:104B60001A68002AE0D023681168994205D0D268FB
:104B7000002AD9D011689942F9D12B681360D26804
:104B8000002AF0D1D0E7C6680121FFF70BFC002E08
:104B9000D5D030002368CCE7C6680121FFF702FCBE
:104BA000002ED7D03000CEE7F8DA0020FCDA002063
:104BB00004DB002070B5446F0600002C18D060683C
:104BC000256800280CD0FEF7EFFC21000420FEF73A
:104BD00021F9002D0AD02C00606825680028F2D148
:104BE00021000420FEF716F9002DF4D1002373678D
:104BF00070BDC046F8B5DE4657464E464546E0B560
:104C0000002800D1ABE0574B1D88002D46D0564BF5
:104C1000994600234A461380544B00221E68544B89
:104C20001F881B7898464146C943524B8A461B68E9
:104C300051499C468B460023002E1FD0140014348B
:104C40006444954200D87EE0531C9BB297422BD817
:104C50005146C918C9B2715C012928D002292AD04D
:104C6000002919D09F4252D963441B7D012B00D8E3
:104C700071E0D218012392B2002EDFD1110014315D
:104C8000614495425FD90C78531C9BB2012C50D0E3
:104C9000022C4BD0002CE7D14A461380F0BCBB4617
:104CA000B246A946A046F8BD21780129D6D11A00FE
:104CB00001340123C5E7911C89B29F4222D9634484
:104CC0001B7D042B44D14B1CAB4241DAD31C9BB25D
:104CD000002E32D08F421FD84446091BC9B2715CE6
:104CE0000432090292B29F421DD844461B1BDBB21C
:104CF000F35C0B43591E89B2594500D91F4B4386BB
:104D00000123B9E744461B1BDBB2F35CD9E74146FC
:104D10005B1ADBB2F35CA9E76144097D0432090246
:104D200092B29F42E1D963441B7DE2E7911C89B2B4
:104D3000C5E71A0001310123A3E76144097D04326C
:104D4000090292B2EFE7002BA8D04B461A80A5E7E4
:104D50004B461980A2E74B4602321A809EE708486C
:104D6000FBF738FC46DB002042DB002014DB002090
:104D700044DB002010DB0020B3050000B405000078
:104D8000E47D0110F0B5D6464F46464605000C00BE
:104D9000C0B500285FD0C368587B1A7B000210435F
:104DA000FDF70CFBC30751D401239A46FE33984606
:104DB0002A4E336899462B894B449C46E3685879C0
:104DC0001A79997900021043090408436146DA7997
:104DD0001206024320898018081A2DD4587B1A7BAA
:104DE00000021043FDF7EAFA5346034207D1276851
:104DF0002000FFF743FA002F17D03C00D9E7EB68FB
:104E000001201F7B5B7B1B021F43FDF7D7FA414646
:104E10003843EA6883B2276808401B0A107353734B
:104E20002000FFF72BFA002FE7D100242C60E0BC14
:104E3000BA46B146A846F0BD531AF7D54B46D21A2A
:104E400091B268682981FEF7E5FAEFE72000FFF7E5
:104E5000F9F90024EAE70248FBF7BCFBE4D900209B
:104E6000007E0110F0B55746DE464E464546E0B599
:104E700083B007000C1E019246D02D4B9B46662343
:104E800098462C4B99465B46E1681D684B7908793A
:104E90008A791B020343C87912041343000618439E
:104EA000FDF790FA238906009A46E368AD1B587B0C
:104EB0001A7B00021043FDF781FA5346ED1A0323D3
:104EC0001840431E98412D1A2AD460682568FEF7C1
:104ED00077FB4346FB5A984227D842461B1ABB52DF
:104EE0004A462389128820009B184A461380FFF700
:104EF000C5F94346FB5A002B0ED0002D01D02C00E3
:104F0000C1E7019B002B0DD0002003B0F0BCBB46D5
:104F1000B246A946A046F0BD002DF5D02C00B2E760
:104F20002000F2E70448FBF755FB0448FBF752FB6F
:104F3000341B002040DB0020507E0110287E011031
:104F4000F0B5DE4657464E464546E0B5040083B010
:104F5000002801D100F0C3FC017D032901D800F035
:104F6000C1FCAB4B1B78DB0654D4AA4EAA4D338848
:104F70002A689C466346002B00D194E0217D0629D7
:104F800000D990E0636A991A012900D554E1D84309
:104F900067468018F84200D54EE1A04F7868002897
:104FA00001D100F0D6FC9E4B994201D900F0CEFC15
:104FB000028989B28A4201D200F0C5FC3B89521AAB
:104FC0005B1A3B8193B2984643898B420BD20022F5
:104FD00094464246C91A634602814381006889B2F9
:104FE00043898B42F6D3FEF783FA636AFA68190A9B
:104FF00051711902090E9171190E2B601371D17143
:10500000228DD218DB43DA4200D454E2200002F0B1
:10501000BDF850E06023C35A7F4D9946836D2A68DE
:105020009A46436D981A15D4934200D151E17D4BB5
:10503000186800934B46D346824520D17A4B1E68B0
:10504000B37B9C46F37B66461B02334399450CD3E6
:105050004B4614E0734B18680093734B1E68B37B88
:105060009C46F37B66461B0233436026A3530236FD
:10507000A75B9F4200D2A35383466265A065666C1E
:10508000B046361A23D4634E3788BC46002F00D072
:1050900091E049465B4451448B4200D1AAE1636BE5
:1050A000002B00D08BE0636AD11A0BD4D243218D40
:1050B000CB18D34206D403B0F0BCBB46B246A946D7
:1050C000A046F0BD0222638B13436383F3E743469C
:1050D000DB43C34200D504E1236D1B1A00D500E178
:1050E00004231E00628B1640134200D09BE146331E
:1050F000E35A9C464823E15A3C27E35FE78FDB10E5
:10510000B94640274B44E35343460237C31AE6539C
:105110009BB260648C4500D89BE180200001024076
:1051200050424241608E01324243101C92B29A4278
:1051300000D9181C081880B2884200D293E1482296
:10514000A052E26E216F2000FFF78CFEE16E02009C
:1051500020672000FFF786FE216FE0664B424B413F
:105160005B42238600232377002800D180E164225C
:105170002E4EA35A36889B19A352638B1A0500D46E
:10518000B2E0002900D1CCE2C9684A7908798B796C
:1051900012020243C8791B041A4300061043FDF7AC
:1051A00011F9E36CC01A00D59EE0638B204A194EBA
:1051B0001340638399E0636B002B00D1DFE6A16BA2
:1051C000081A00D4D6E69BB29A461A493C23E05E00
:1051D0000988C710BFB2CB1B884651465B1A9BB2E9
:1051E000181800B219B2A087002903DA4346FB1A47
:1051F00053449BB23E27E15FC0108F10C91B5B1860
:1052000040219BB2E3871B18635200236363B1E61E
:1052100053DB002048DB0020E4D90020343000209C
:10522000FEFF0000341B002010DB002040DB0020CC
:10523000FFF7FFFF08DB0020D11A00D5D5E0D143EE
:1052400089464846218DC918C14200D5DEE6934201
:1052500000D12FE10023676F9846531E002F00D125
:1052600064E2B44616004246A84601940093F968E9
:1052700048790B79000203439A4650468B791B0408
:105280000343C87900060343B34200D1F3E0002A88
:1052900033D0D0680479A34644792402A2465C4600
:1052A00055462C43A2468479C0792404A34654462B
:1052B0005D4600062C432043009C201A03D4484638
:1052C000C34200D43FE238683A00002823D00700E8
:1052D000CDE7B94B1868009353461B1A00D4A9E6D2
:1052E000BBE6200001F052FFB44E636B002B00D0F0
:1052F00075E033882A689C463CE6F21AE3D5B0484C
:10530000019CFEF7C9FF002800D17FE660673900E5
:10531000FFF738FD7AE6320045466646019C9B1A47
:1053200000D473E6487B0B7B00021843FDF746F878
:10533000C30700D56AE6A248FEF7AEFF3860002832
:1053400000D163E6F8682A68437901791B020B43B0
:10535000817909040B43C179090619433B895B181C
:10536000D31A00D5C1E2636A3188591A238DC9184E
:10537000891A00D44AE63B68DB68587B1A7B000236
:105380001043FDF71BF8C30700D5BBE23A68218D37
:105390002B685068C91A636A9C46614489B21181BE
:1053A000FEF738F83B681F89DB68587B1A7B0002E0
:1053B0001043FDF703F80300032003405A1E9341F6
:1053C000616AFB188C462A689BB233809B18228D39
:1053D0006244934200D119E67A48FBF7FBF8009A41
:1053E0001068328894462A68E9E60222638B1343E8
:1053F00063830BE63021635E002B00DA4FE68045C5
:1054000000D04CE64321635CFF2B00D1F2E1013375
:10541000DBB26354032B00D9ECE100D03FE620005F
:1054200001F076FD61E79A434A2362830022E15A44
:10543000023BE1522233E2523C26A35FE68FDB10AF
:105440009B194026A35343460236C31AA2539BB26C
:1054500060646A20225AD3189BB29A421ED88B42AB
:105460001DD223526DE6012248235242E25268E6E1
:105470006833E0527BE6524890463B890289019CA2
:105480009A4200D8C2E5FEF707FF002800D1BDE52B
:105490004346002B00D139E7186038E74A4B6A22AF
:1054A0005B1AA352638ECB189BB28B42DBD3223A9A
:1054B000A35246E6424F3B899846FB68587B1A7BCD
:1054C00000021043FCF77AFF032303405A1E934166
:1054D00043449BB23380228D934200D956E1616FE1
:1054E000002900D12BE1FB68587B1A7B0002104396
:1054F000FCF764FFC3076DD4636F9846002B00D19F
:10550000FBE10123994601339A4623000097444664
:10551000984609E0236820009B46FEF7AFFE5B46F5
:10552000002B00D17CE15C462A68338893469C4678
:10553000DC446746E26851791079090201439079A9
:1055400000040143D0790006014320894018381A2D
:1055500000D55AE1507B137B00021843FCF72EFF65
:105560004B460342D6D0009BDB68587B1A7B000277
:105570001043FCF723FF53460342CBD1009FFA6848
:10558000537B107B1B0203439B460120FCF716FF55
:105590005B46FF21FA68034398B20B401373030A7A
:1055A00053733B899B46FCF709FF032303405A1EB4
:1055B00093415B443380ADE7341B002048DB00207F
:1055C00034300020D87E0110FFFF000003686367BD
:1055D000FEF754FE606F0028F8D12A68338894469D
:1055E000228D9C4461466162934200D9A8E1D31A9E
:1055F00023852000FEF73CFB7B681A89002A03D034
:10560000D54A136000237B60FB68587B1A7B00023D
:105610001043FCF7D3FEC30704D52021CF4A1378EB
:105620000B431370666F002E72D0CB4B0327994645
:10563000CA4B98461FE0FDF7E1FF00237360F36853
:10564000587B1A7B00021043FCF7B8FEC3070AD54B
:10565000434620221B78134342461370237D042BBC
:1056600001D103332375336830006367FEF706FE0C
:10567000666F002E4CD0F16848790B798A79000268
:1056800018431204CB791043626A1B06034393420A
:105690003ED12B603389487B9A460B7B000218432E
:1056A000FCF78CFE3840431E9841636A5344C0188F
:1056B000238D60629A4633899B46F368587B1A7B38
:1056C00000021043FCF77AFE3840431E98415844CC
:1056D000824500D231E133899A46F368587B1A7BC0
:1056E00000021043FCF76AFE3840431E9841238DA8
:1056F0005044181A20852000FEF7BAFA71680B8909
:10570000002B9CD04B461868002894D1196094E770
:105710000122638B1A420ED0934302221343638308
:10572000C9E4002800D141E5C1682EE58C48FEF7A8
:10573000B3FD60676AE4012213436383BBE4296815
:105740008C469C444EE786484546019C9046FEF7B1
:10575000A3FD061E00D159E44346D8682968427962
:105760000379857912021A43C3792D042A431B0653
:10577000134342461289D2188A1A71D4434639001B
:1057800030001E60FFF7FEFAFFF740FCFB68587B15
:105790001A7B00021043FCF711FEC30749D4FB68D3
:1057A000587B1A7B00021043238D3B81FCF706FED9
:1057B0003989830702D5013989B239817868FDF7C3
:1057C00029FE3B899846FB68587B1A7B00021043F0
:1057D000FCF7F4FD032303405A1E93414344296818
:1057E0009BB23380228D5818616A5118884200D1CB
:1057F00075E6F1E54823E25A638ED3189BB29A42CC
:1058000000D9584B4822A35209E64246A04614004C
:105810006246009F8A1A2BD442466267228DE1E6D7
:105820002A683388944600224446009F90469C4450
:10583000F2E7FB681A7B5B7B1B0213431800984658
:10584000FCF7BCFD3E231840FCF7B8FD4246464B32
:1058500013400343FA6898B21373030A5373A3E720
:10586000C91A434689B258681981FDF7D3FD85E707
:105870005B46C91AFB683981587B1A7B00021043CA
:10588000FCF79CFD830702D53B89013B3B813989AD
:105890007868FDF7BFFD3B899946FB68587B1A7B0A
:1058A00000021043FCF78AFD032303405A1E934174
:1058B00042464B44D1689BB233804A790879120240
:1058C00010438A79C97912040243090611432A68F0
:1058D0008C469A188A429FD02448FAF77BFE2448C7
:1058E000FAF778FE2348FAF775FE511A89B27868FC
:1058F0003981FDF78FFD2A6835E52A68338894469B
:105900009C4489E73B68DB681A7B5B7B1B02134383
:1059100018009846FCF752FD3E231840FCF74EFD58
:1059200084464046104B3A68034060461843D168AD
:1059300083B21B0A08734B7329E50F48FAF74AFE36
:105940000E48FAF747FE0E48FAF744FE0D48FAF7FC
:1059500041FE0D48FAF73EFED8D900205ADB002060
:1059600034300020FFFF0000FFC0FFFF107F011058
:10597000707E01108C7E01106C7F01104C7F011035
:10598000C87E0110B87E0110A87E0110F0B5DE4679
:1059900057464E464546E0B504008DB0002801D17B
:1059A00000F043FD7A22884DAB5A0133AB52874B4E
:1059B000426898461A604389132B11D88222AB5A49
:1059C0000133AB527E22AB5A0133AB522000FDF7BC
:1059D000EBFD0DB0F0BCBB46B246A946A046F0BDFB
:1059E0007B4F3968786907F0A1FD002815D1F023B5
:1059F0007A691340E02B10D039003B001431228922
:105A00002000009110330621FCF7A6FF061E09D0E6
:105A10008022AB5A0133AB52D4E78822AB5A013310
:105A2000AB52CFE743461B68587B1A7B00021043FA
:105A3000FCF7C4FC010B8900C9B21329BED9238924
:105A40008AB28B42BAD313006248143B9BB20380E4
:105A500081466148066082466089904200D30AE22E
:105A60002368002B01D100F0DEFD14212000FDF79A
:105A70003FFD6689594B31001E804B461B88200034
:105A800099469B1B9BB29B46FDF732FD20684389DC
:105A90005B4500D292E75346426859461A60FDF7CB
:105AA00027FD4A462389F3189B1A62899BB22381FA
:105AB000002A01D000F0BDFD226812899A4201D06F
:105AC00000F0B4FD43461E68707833780002184336
:105AD000FCF774FC43463070000A70701E68F07862
