:020000041000EA
:1000000000B5324B212058609868022188439860DF
:10001000D860186158612E4B002199600221596106
:100020000121F02299502B49196001219960352056
:1000300000F044F80222904214D00621196600F024
:1000400034F8196E01211966002018661A6600F04E
:100050002CF8196E196E196E052000F02FF8012189
:100060000842F9D1002199601B49196000215960AB
:100070001A491B48016001219960EB211966A021F2
:10008000196600F012F800219960164914480160C1
:100090000121996001BC002800D000471248134993
:1000A000086003C880F30888084703B5996A0420EC
:1000B0000142FBD001200142F8D103BD02B5186610
:1000C0001866FFF7F2FF186E186E02BD00000240BE
:1000D000000000180000070000035F00212200005C
:1000E000F4000018222000A00001001008ED00E03C
:1000F00000000000000000000000000074B24E7A12
:1001000000200420F7010010C3010010C5010010F9
:10011000C1010010C1010010C1010010C101001097
:10012000C1010010C1010010C1010010C701001081
:10013000C1010010C1010010C9010010CB01001065
:10014000CD010010CD010010CD010010CD01001037
:10015000CD010010CD010010CD010010CD01001027
:10016000CD010010CD010010CD010010CD01001017
:10017000CD010010CD010010CD010010CD01001007
:10018000CD010010CD010010CD010010CD010010F7
:10019000CD010010CD010010CD010010CD010010E7
:1001A000CD010010CD010010CD010010CD010010D7
:1001B000CD010010CD010010CD010010CD010010C7
:1001C00000BE00BE00BE00BE00BE00BEEFF3058054
:1001D000103800BEF2EB887104E704102CE704101D
:1001E0003802001090A31AE71E481F49086006C88D
:1001F00081F3088810471D480068002801D019487D
:10020000F3E70DA40ECC002902D000F012F8F9E7B4
:100210001749184A002000E001C19142FCD116495B
:100220008847164988471649884700BEFDE701C937
:1002300001C29A42FBD370472CE70410E000002073
:10024000F00C00203CF30410000004200000042007
:100250003CF30410001004200010042000000000F3
:10026000704700000000000008ED00E0000000D032
:10027000F00C0020FCBB00203540011021030010D1
:100280002D400110F8B5C0460448054B10B5834217
:1002900003D0044B002B00D0984710BDF00C002079
:1002A000F00C00200000000006480749091A8B10D6
:1002B000C90FC91810B5491003D0044B002B00D04A
:1002C000984710BDF00C0020F00C0020000000004A
:1002D00010B5074C2378002B09D1FFF7D5FF054B4C
:1002E000002B02D0044800E000BF0123237010BDA2
:1002F000A00F00200000000014510110054B10B5A4
:10030000002B03D00449054800E000BFFFF7CCFFF5
:1003100010BDC04600000000A40F002014510110C1
:1003200000B599B013F0C8FF0DF0D8FA094A0A4990
:100330000A480DF089FA0A4B01A90193094B05A857
:1003400002AA029300F0A0FB01A903A800F05EFC42
:10035000FEE7C0460400400018510110245101106E
:10036000C0A80401FFFFFF00F0B54746CE4680B5A8
:100370006A4C138907001600A544F22B09D83000F7
:1003800003F0DEF993239B009D44C0BCB946B04600
:10039000F0BD892200233000920009A903F0F4FA8D
:1003A000F228ECD924216A4602235218137039002E
:1003B00004220DA812F036FB9A20002345AD400020
:1003C0000AE0922292009C186C44343CFF3C247852
:1003D00002341B198342D2DAEA5CE918FF2ACED034
:1003E000352AEED18B78012B00D19FE0032BC6D1AB
:1003F0009A20002340000AE0922292009A186A4450
:10040000343AFF3A127802329B188342B7DAEA5C38
:10041000E918FF2AB3D0322AEED18A783B789A4283
:10042000ADD1CA787B789A42A9D10A79BB789A4231
:10043000A5D14B791C00103CE4B29846072C9ED8FD
:100440001D000F3DEDB2ED007D190622280010A918
:1004500014F0DAFB00280CD006222800304914F0F2
:10046000D3FB002800D08AE70622280010A912F04A
:10047000D9FA01F0CBFC002900D17EE2FA22002358
:10048000920011F01FFF0300264A01349446E40055
:1004900063443C191B0CE38037226B469B18424691
:1004A00024241A7069463622F0230919FF32CA52F1
:1004B0006946313A09190233FF3ACA546B463D3254
:1004C00041219B186A464020521869460918404647
:1004D0001B7812780978362506906846401900780E
:1004E000013D0590684640190078013D049068463A
:1004F000401900786D46039021202D19285C6D4627
:10050000029020202C19205C4324019028190078A7
:100510000090054813F0ACFF84E0C046B4FDFFFF37
:100520007C510110005C26053051011008239846CB
:10053000B8440622404610A914F066FB041E5FD0A2
:100540006F4D06222900404614F05EFB041E00D0C9
:10055000D4E0FB896B4A1B041A43914601F056FC18
:10056000002900D1EBE1FA220023920011F0AAFE4B
:100570004B46181A00D51AE210239846B8440622B2
:10058000404610A914F040FB002800D17AE2082C64
:1005900000D1BDE03800062210A9183014F034FB59
:1005A000002800D1F4E13800062210A9203014F010
:1005B0002BFB002800D1F2E13800062210A92830D8
:1005C00014F022FB002800D1EBE13800062210A92C
:1005D000303014F019FB002800D1E4E13800062285
:1005E00010A9383014F010FB002800D1DDE13800EC
:1005F000062210A9403014F007FB002800D196E134
:1006000037226B4624219B186846362210341C7012
:10061000F0234018FF32C2526846343A0233FF3AA0
:100620004118CA5424256946F32336221A2004248B
:100630004919CA54FF300133CC54042239006844AC
:1006400012F0F0F96946F923012220204919CA5411
:10065000FF300133CC540422391D684412F0E2F912
:100660006946FF23032226204919CA54FF3001336B
:10067000CC5404223900684412F0D4F906236946A8
:1006800006222C204919FF33CA54FF300133CC54C1
:1006900004223900684412F0C5F90C23684633225D
:1006A0004019FF33C254184B68464C9388234119B4
:1006B0005B00B33ACA52A0228921144B3620920023
:1006C00049005D6802F0DEFE041E00D157E6892273
:1006D0004068520009A912F0A5F901235B42B86CE9
:1006E0000893002D00D124E121000095453308AA8C
:1006F00007F032FD200003F023F840E6082428E745
:100700007C510110FFFF000004000151C8200020AF
:1007100006222900404614F077FA002800D1073C51
:10072000FB8AD0481B041843814601F06FFB002967
:1007300000D109E1FA220023920011F0C3FD4B46DB
:10074000181A00D542E118239846B84406224046BC
:1007500010A914F059FA002800D119E1082C00D092
:1007600021E706222900404614F04EFA002800D165
:10077000063CFB8BBB481B041843814601F046FB3B
:10078000002900D1E5E0FA220023920011F09AFD41
:100790004B46181A00D528E120239846B844062273
:1007A000404610A914F030FA002800D1F7E0082CD8
:1007B00000D001E706222900404614F025FA00285F
:1007C00000D1053CFB8CA74A1B041A43914601F05B
:1007D0001DFB002900D1C1E0FA220023920011F094
:1007E00071FD4B46181A00D50EE128239846B844EF
:1007F0000622404610A914F007FA002800D1D0E0E4
:10080000082C00D0E1E606222900404614F0FCF94D
:10081000002800D1043CFB8D924A1B041A439146E8
:1008200001F0F4FA002900D19DE0FA2200239200A1
:1008300011F048FD4B46181A00D5F4E030239846D5
:10084000B8440622404610A914F0DEF9002800D171
:10085000A9E0082C00D0C1E606222900404614F089
:10086000D3F9002800D1033CFB8E7E4A1B041A43B7
:10087000914601F0CBFA00297AD0FA2200239200A7
:1008800011F020FD4B46181A00D5DBE038239846BE
:10089000B8440622404610A914F0B6F9002800D149
:1008A00083E0082C00D0A2E606222900404614F07E
:1008B000ABF9002800D1023CFB8F6A481B041843A7
:1008C000814601F0A3FA00295DD0FA2200239200AC
:1008D00011F0F8FC4B46181A00D5C5E040239846A5
:1008E000B8440622404610A914F08EF900281ED004
:1008F000082C00D084E606222900404614F084F932
:10090000002800D1013C4623FB5A564D1B041D43D1
:1009100001F07CFA00293DD0FA220023920011F068
:10092000D1FC2D1A00D5A6E0082C00D127E507241C
:1009300066E64423210008AA07F032FCDAE6FA2131
:10094000890011F081FC13E6FA21890011F07CFC8A
:10095000F5E6FA21890011F077FC19E7FA21890000
:1009600011F072FC3DE7FA21890011F06DFC61E79E
:10097000FA21890011F068FC84E7FA21890011F05E
:1009800063FC030080E5FA21890011F05DFCA1E71A
:10099000022435E6FA21890011F056FCC1E7032450
:1009A0002EE604242CE605242AE6062428E6062260
:1009B0000021404612F030F83800062210A910300D
:1009C00014F022F900285DD00024E3E5062200217E
:1009D000404612F021F83800062210A9183014F011
:1009E00013F90028D4D00124DDE506220021404679
:1009F00012F012F83800062210A9203014F004F981
:100A00000028CCD00224D7E506220021404612F06F
:100A100003F83800062210A9283014F0F5F8002851
:100A2000BFD00324D1E506220021404611F0F4FF97
:100A30003800062210A9303014F0E6F80028B2D0B1
:100A40000424CBE506220021404611F0E5FF3800E2
:100A5000062210A9383014F0D7F80028A5D00524B4
:100A6000C5E5C046FFFF000006220021404611F008
:100A7000D3FF0624BBE506220021404611F0CCFF3F
:100A80000724BDE50124BBE50B6810B503601368BE
:100A90000400436040220021083011F0BDFF07F040
:100AA00013FCA064002808D02200044907F0E8FBEA
:100AB0004322A06C024907F031FA10BD690300100F
:100AC000BC690110F0B54F464646D6461500962241
:100AD000C0B5CCB0984654AB1B8801AE0700994610
:100AE000310000232800520002F04EFF04000B28C2
:100AF00008D8280002F024FE4CB0E0BCBA46B1464B
:100B0000A846F0BD708801F0BFFE8246B08801F0B3
:100B1000BBFE53465246DB0BD20A13439BB2002B5B
:100B2000E7D10028E5D0301904AB1C00984207D863
:100B30000DE03F29DDD80131C9B26418A04203D9C4
:100B400021780029F5D10134E31AFF2BD1DCC02331
:100B50002371B43B637100239A46A3710133E3719F
:100B6000637253463C33637353465246200004334A
:100B7000E373391D2272A272E2722273A2731030E3
:100B80001A0011F04FFF1D4801F07EFE7080012019
:100B900001F07AFEB080012001F076FE53463381E9
:100BA000738180231434F080A41B5B029C4200D329
:100BB000134CA0223620A1B2920002F063FC8246C0
:100BC000002816D022003100406811F02BFF4B4660
:100BD00042465146386807F0E3FA0400504602F0F6
:100BE000AFFD002C00D184E72100064813F040FC43
:100BF0007FE7054813F0B2FB7BE7C0468084000026
:100C0000FFFF0000B05101108451011030B583B0D6
:100C100004000D0007F058FB206000280ED02200D1
:100C20000A4907F02DFB00233522206801A9019312
:100C300007F074F9021E03D12B68636003B030BD66
:100C40003521034813F014FCF8E7C046C50A00102C
:100C5000D051011010B506F0E3FF10BD0123F0B52F
:100C60000B7283B0040007F00FF80500431C0DD190
:100C70001249134B1A685B68009201938A60CB603B
:100C8000236820005B69984703B0F0BD01F0BEF80F
:100C9000FA2206000F00002328000021920011F024
:100CA0004FFE36184F41002F03DB04498E60CF60A2
:100CB000E6E70126034F7642F7E7C046B803002077
:100CC00008520110FFFFFF7F70B5094D04002B781B
:100CD000002B08D00123074920000B722368DB6931
:100CE0009847012070BD01F0BDFD01232B70F1E795
:100CF000EEBB0020A803002010B5040003680449DF
:100D00009B699847236820001B6A0249984710BDD9
:100D1000B8030020A8030020002070477047C04699
:100D200010B501F073F8002905D0FA2200239200D3
:100D300011F0C8FA10BDFA21890011F085FAF9E71F
:100D4000020083680832002B04D107E01A001B68F8
:100D5000002B03D09942F9D1002003E000230120A9
:100D600011600B607047C0468368002B08D0994221
:100D700002D107E0994207D01A001B68002BF9D175
:100D800000207047020008320B6801201360F8E76A
:100D90004368021D002B04D107E01A001B68002BDA
:100DA00003D09942F9D1002003E000230120116013
:100DB0000B6070474368002B08D0994202D107E0CE
:100DC000994206D01A001B68002BF9D10020704709
:100DD000021D0B6801201360F9E7C046F8B54746CD
:100DE000CE468368804680B5002B29D00823434433
:100DF000994601F00BF843469E6804000D00002E52
:100E000058D000234F469C46B268F3682000290062
:100E1000801A9941002902DB14001D00BC463700EE
:100E20003668002EF0D16346002B43D01968404647
:100E30000A681A604B68984743469B68002BD8D1D4
:100E400043465C68002C31D00025237A002B29D042
:100E5000210063682572404698472468002CF4D12D
:100E6000174B1868596843469E68002E04D112E05B
:100E700020002900002E0ED0330002009C68DD689F
:100E80000B00121BAB413668002BF1DCF2D1002ABB
:100E9000EED1002EF0D1434618615961C0BCB9466D
:100EA000B046F8BD2468002CCFD1D9E7044B1868B0
:100EB0005968F0E743465C68002CC5D1D0E7C046CE
:100EC000085201100FB400B5084883B013F046FA79
:100ED000049B002B07D005A91800019113F072F8AC
:100EE000034813F03BFA012013F084F8F451011089
:100EF000B8E00410104A114B10B512184B4199007C
:100F0000900F0843990F504059400D4A0D4B11F076
:100F100017FD03004A01C00E1043CA0E584051404D
:100F2000094B0A4A11F00CFD03004A00C00F1043A0
:100F3000CA0F5840514010BD157C4A7FB979379E81
:100F4000B9E5E41C6D4758BFBB49D094EB11311390
:100F5000F0B504684568060023002A00C64680688C
:100F6000F16803430A4300B5134304D100F04EFF78
:100F700003000B43FAD02A06230A604027061343D6
:100F80002A0A3A43070CBC4669404B4098466346E0
:100F90000F041F43424003045A4043467B403260E3
:100FA0007360C20E4B011343C90E40010843B36086
:100FB000A10FAB000B43A200A4185D41EB01620E30
:100FC0001A43E4016B0E2343F0601E0017005B0F11
:100FD000D100F00019438019794180BCB846F0BDBA
:100FE000F0B5DE4657464E464546E0B5B84B8DB0A7
:100FF0001B78002B00D1ECE008AB9846B54BB64C03
:101000000393B64BB64F049310220499404611F057
:1010100009FDB44B1B78DBB2059300F0F7FEFFF738
:1010200069FF089B584043465B6808905940434617
:101030005960AD4B9B69DB0400D5C0E010F0F8FFB0
:10104000EFF305839B46B9465F46A84B2568666863
:101050009A4628003100002F1AD000F00BFFEFF362
:10106000108272B653461B68002BFBD0BFF35F8F14
:101070002368AB420FD0BFF35F8F00215346196046
:1010800082F310882568666828003100002FE4D1BB
:1010900000F0AAFDE3E76368B342ECD10125924B6F
:1010A0001600D8694F46054000F0B0FE0A22002322
:1010B00080185941002900DA7DE03A687B6892186F
:1010C0005B412060616028001C0013001043009306
:1010D000019438607C60BFF35F8F0024834A146002
:1010E00086F310880199FFF705FF43469B68804A05
:1010F00058404346DB689446594043469860D9605F
:10110000039B7C4A1B78DB006344986890425ED066
:101110000021FFF7EFFE089B584043465B680890AC
:10112000594043465960EFF3108572B66F4A136811
:10113000002BFCD0BFF35F8F6A4B059A1B7893425C
:1011400019D0049940460B6840681A00089B5A4021
:10115000089242464B68434053608B680093434675
:10116000009A9B685A40CB684146C96800934B403F
:1011700041468A60CB604046FFF7EAFE1022060037
:101180000C000498414611F04DFC564B554A1B7813
:101190000133DBB21370BFF35F8F0022534B1A6031
:1011A00085F31088300021000DB0F0BCBB46B2467C
:1011B000A946A046F0BD01204F4940427DE74F4B74
:1011C000DA6BE0231340402B00D039E736E79C6010
:1011D0009EE74B4B9946186859684A4B9C464A4BC8
:1011E0009846830E8F011F438601030C0D041D4397
:1011F00032003B00040412196B41121A8B41614604
:1012000001C98C4600210090019100980199801835
:101210005941C445E5D14B4618605960FFF76AFE55
:1012200008AB9846089B584043465B680890594075
:10123000434606A8596000F021F906980799FFF780
:1012400059FE43469B6858404346DB685940434635
:101250009860D960244B9B69DB0436D5274BDA6B49
:10126000E0231340402B30D0EFF305839A46402310
:101270000024039300231D4F00930194164C002378
:101280009B4653462568666828003100002B19D01C
:1012900000F0F0FDEFF3108972B63B68002BFCD034
:1012A000BFF35F8F2368AB4230D0BFF35F8F5B46E5
:1012B0003B6089F310885346256866682800310032
:1012C000002BE5D100F090FCE4E710F0B1FECBE795
:1012D000F5BB0020EBBB0020980E0020C8000020CA
:1012E000D8000020ECBB002000000640300100D0F8
:1012F00000000340FFFFFF00FFFFFF7F0080004072
:10130000C0000020001C0420002004206368B342B9
:10131000CBD1009A019B1000190080185941484B0D
:10132000DA690123134003430093019100F06EFD3D
:101330000A22002380185941002949DB039B2060C1
:101340006160012B3AD1009801993E4F3860796075
:10135000BFF35F8F00233C4D2B6089F31088FFF7AC
:10136000C9FD089B584043465B6808905940434676
:10137000596000F04BFDFFF7BDFD43469B685840A8
:101380004346DB68594043469860D960EFF31086C6
:1013900072B62B68002BFCD0BFF35F8F2B4B1B78F2
:1013A000002B19D02A4B03932A4B0493BFF35F8F72
:1013B0000022254B1A6086F3108825E6BFF35F8F65
:1013C00000233B6089F31088039B013B039356E79E
:1013D000012021494042B1E7204BDA681F2A23D07F
:1013E0005A691F2A22D0DA691F2A25D05B6A1F2B6F
:1013F0001FD010F01DFEFF22FF231549DB000A70ED
:10140000174A03919446052263445A604046FFF709
:101410009FFD104B102218004146049311F002FB6F
:1014200001230A4A1370C1E700230393039BDAB236
:10143000E3E71C3B0393F9E702230393F6E7C04677
:1014400000000640D8000020300100D0F5BB00208D
:10145000EBBB0020C8000020FFFFFF7F000003401F
:101460000800034010B5FFF7BBFD10BD10B50248E2
:1014700000F00CF810BDC04690BA002010B508224C
:10148000014911F0CFFA10BD90BA002030B5002507
:1014900089B004000922002101A8009511F0BCFACE
:1014A0000922002105A8049511F0B6FA4B236A46DB
:1014B0006846137004A90D2213F0DAFD15210822E5
:1014C0002000694411F0AEFA09B030BDEFF310808E
:1014D00072B6034A1368002BFCD0BFF35F8F7047CE
:1014E0002C0100D0BFF35F8F0022024B1A6080F303
:1014F000108870472C0100D070B5EFF3108C72B6D5
:101500000D4D2B68002BFCD0BFF35F8F0724CB0859
:10151000C618C05C01230C40A3401C0004400342D9
:1015200007D103433370BFF35F8F2C608CF31088B7
:1015300070BD1000FFF7C6FC2C0100D0F8B547467F
:10154000CE46884680B5EFF3108C72B6214D2C68DC
:10155000002CFCD0BFF35F8F9A422CD8D408072709
:10156000055D061901241740BC402C421FD00721FD
:101570000127894609E0D408055D06194C46390063
:101580001440A1400C00294211D001329342F2D202
:1015900001204042BFF35F8F00220E4B1A608CF394
:1015A000108800280FDBC0BCB946B046F8BD2C43FC
:1015B00010003470EEE7BFF35F8F00232B608CF3D5
:1015C0001088012040424346002BECD00898FFF7DA
:1015D00079FCC0462C0100D030B5EFF3108C72B608
:1015E0000A4C2368002BFCD0BFF35F8F0723012236
:1015F000CD0819408A40435D93434355BFF35F8F45
:10160000002323608CF3108830BDC0462C0100D02D
:10161000044A1078431CDBB2172B00D91023137037
:101620007047C046D00300200021044B044ABFF39A
:101630005F8F02C39342FAD17047C046000100D0C9
:10164000800100D0142310B50100188804331B88D2
:10165000984710BD162310B50100188802331B8867
:10166000984710BDF8B54746CE4680B50F1E19D035
:1016700014239946043304000025012698464B465E
:101680001888434621681B88984701C4431E984127
:10169000013540420640AF42F1D13000C0BCB946EE
:1016A000B046F8BD0126F8E70A4B1968EFF3108041
:1016B00072B60A68002AFCD0BFF35F8F1B68BFF3C5
:1016C0005F8F00221A6080F3108840BF0020002145
:1016D0007047C046A0BB0020F0B5DE4657464E46D8
:1016E0004546E0B585B0EFF30582032313409A0029
:1016F00011000392B64A5258904601229A409146F0
:10170000B44B1A604B46B4484363434608229B5E81
:101710009A46002B3DDA43469B881BB2002B00DB28
:10172000A1E043469B79002B00D0F3E04346082418
:101730001C5F002C23DB42465269630094461B1950
:10174000DB0063449C68DD68631C00D10FE1A248A4
:10175000039984466144826A0B69A61A9B1A9E42C9
:1017600015D34A46036A1A4211D09B4800F046FB43
:10177000241A8D41002D02DCC4D1002CC2D040BF00
:1017800005B0F0BCBB46B246A946A046F0BD0C6110
:10179000EBE7424652695B0093465344DB009B44AF
:1017A0005B469E68DF6800F029FB801BB941002979
:1017B000B1DB002F00DAE5E05B46884A1B69934203
:1017C00000D1D8E041465A460820085E52880004FD
:1017D00010435A465169984704000D0023002B43DB
:1017E00000D1CFE0002D00DBE8E0361BAF41340034
:1017F0003D005B469C60DD600021595E002900DAF7
:1018000089E743465B6922009C462B00480040184C
:10181000C00060448668C768921BBB41002B00DA99
:1018200079E74346664602000094019519810CE071
:101830007B00DB19DB00F318009801999C68DD68D8
:10184000001BA941002904DB1A000023D75E002FEA
:10185000EEDA5B461F805346138043469B881BB2DB
:10186000002B00DA5DE743461A69EFF3108172B688
:101870001368002BFCD0BFF35F8F43469B88424622
:101880001BB29A4601235B4293801369BFF35F8FBB
:1018900000221A6081F310885346002B00DA40E7DB
:1018A00043465B699C46082343449B4653465F007E
:1018B00043465744FF0008229A5E67445E46BC6870
:1018C000FD68002A19DB3B000094019567469C46A1
:1018D00004E01E000023F25E002A0BDB0098019951
:1018E00053009B18DB00FB189C68DD68001BA941B6
:1018F0000029EEDA6346BC461F00534633800021C0
:101900007B5E3A809A46002BD0DA43469B79002BC7
:1019100000D10BE700234246937143464646082117
:10192000595E08364B1C00D129E747468C4655695D
:1019300002E006004B1C17D04B005B18DB00E818D8
:101940000A00E95E43881BB2002BF2DA01235B42F6
:10195000DC178360C4606245ECD031803B899446DB
:1019600003803A814B1CE7D1B8466446E1E66B1C24
:1019700000D0ECE6F9E65B465C69200023699847F5
:10198000002821D15B4642461B8813811269EFF380
:10199000108372B611680029FCD0BFF35F8F4246F6
:1019A000594652880A804246514651801269BFF317
:1019B0005F8F0021116083F31088ACE6064800F0C9
:1019C0001DFA24184D4114E76568246806E7C046EF
:1019D0006CBA00203C70054000400540D91600104C
:1019E00070B52E4C2569002D04D00A212C4800F03A
:1019F000DFFC70BD2B4E0321300000F0F5F9E660EE
:101A0000FFF706FE284B03229C46D02322701B06BC
:101A10001B6801216370254B6044A3600F23800085
:101A200020610220638063694942A18019800231EC
:101A3000198647311D83585218315A5275325C3914
:101A40009952183201319952183201319952183293
:101A500001319952083518329D520231183299528B
:101A6000183201319952183201319952183201312C
:101A700099521832013199521832013199520C4B56
:101A80000C49DC600130356200F028FA01210320A6
:101A900000F012FA084B1D60A7E7C046D4030020EF
:101AA000A0BB00200040054040000034FFFF1000B4
:101AB0006CBA0020D91600103860054070B5C646D3
:101AC000010000B50469EFF3108C72B6206800289D
:101AD000FCD0BFF35F8F02200D5E48696C0080462A
:101AE0006419E4004444002D01DB20884880086923
:101AF000BFF35F8F002606608CF31088002D30DB6B
:101B0000E36063880598013320615B0406985B0CF1
:101B1000A26060611A1C002B21D090B22B0462805D
:101B200018430A69EFF3108672B61368002BFCD0D5
:101B3000BFF35F8F8B8823808D800B69BFF35F8F2E
:101B400000221A6086F310880B7801329A40CB6825
:101B500005498C4663441A6040BCB04670BD012202
:101B6000DBE701204042F7E73C20000010B5438945
:101B70000A14934233DD53009B184269DB009446FC
:101B800004696344EFF3108C72B62268002AFCD01B
:101B9000BFF35F8F5A88090494B2090C8A4208D0B7
:101BA0000369BFF35F8F00221A608CF31088002056
:101BB00010BD8022120214435C80012302698371EC
:101BC000BFF35F8F002111608CF310880549027804
:101BD0008C469340C268012062441360E8E700200D
:101BE000E6E7C0463C200000F0B504000D000626E4
:101BF0007642F717C64636196F4100B582B08F425C
:101C000014D811D000F002F932003B00121A8B41B7
:101C1000002B15DC002B44D02000290000F02AF90D
:101C200002B080BCB846F0BD8642EBD90026002742
:101C300000F0ECF832003B00121A8B41002BE9DD7A
:101C400000F0E4F832003B00121A8B41002B0ADB53
:101C500000230193144B3200009314483B00FFF71C
:101C60002DFF0028D8DBB0460026BC46104A114F95
:101C70007B6A9C4504D8B96A8845CDD99C45CBD1AF
:101C80001168EFF3108072B60B68002BFCD0BFF325
:101C90005F8F1368BFF35F8F1E6080F3108820BFD3
:101CA000E6E7002AB8D0CBE7A9160010D40300203D
:101CB000A0BB00200040054070B5060000F0A6F86B
:101CC000FA2204000D00002330000021920010F0E1
:101CD00037FE00196941002902DBFFF785FF70BD5F
:101CE000012001494042F8E7FFFFFF7FF0B5CE46F3
:101CF000474680B504000D0083B0EFF30587002F41
:101D00000DD0364A0020536A8B4203D3926A0130C9
:101D1000A24250D303B0C0BCB946B046F0BD304B70
:101D20009846DB689946434648461E7800F066F8B8
:101D30000B00494602000436B600715820008E1A86
:101D40002900801A99418F4211DC0ED020BF234A0E
:101D50000020536AAB42DDD3926A0130A242D9D24D
:101D6000E81A421E9041C0B2D4E78642EED900F094
:101D70004DF822002B00121A8B41002B20DB002390
:101D80000193184B2200009340462B00FFF796FE6C
:101D9000011E15DD114B2E005A6A95421CD89B6A14
:101DA000A34217D34046FFF7E1FE0C4A0020536AD6
:101DB0009E42AFD8D0E7581A421E9041C0B2A9E760
:101DC000064A0020536AAB42A4D3926A0120A24281
:101DD000A0D2C5E79542E5D120BFE3E7004005402A
:101DE000D4030020A916001010B5024A0248FFF7DC
:101DF00083FB10BD105201100C1200200300416A39
:101E00000A00986A596A8A42FAD17047034B596AA4
:101E10000A00986A596A9142FAD170470040054019
:101E200070B504000D00124A536A1900966A536A8D
:101E30008B42FAD13000190024184D41AB4211D821
:101E40000ED02B000A494A6A9A42FCD307D1084AAD
:101E500002E0516A994202D1916AA142F9D370BD60
:101E6000A642EED9012301246442E5175B42E9E76B
:101E700000400540064A536A9942FCD807D1044BFA
:101E800002E05A6A914202D19A6A8242F9D37047BB
:101E900000400540054B064A1360064A1360536034
:101EA0009360D36013615361936170478080808039
:101EB00000E400E004E400E01F2318401E3B8340E0
:101EC000002905D0C021044A4900535013607047CF
:101ED000802201498B50FAE700E100E070B50D0067
:101EE000EFF3108672B60F4A1368002BFCD0BFF3D5
:101EF0005F8F0D4B10309B6884001B590B4A934237
:101F000003D09D4201D010F093F8074B9B681D5100
:101F1000BFF35F8FBFF35F8F0022024B1A6086F31F
:101F2000108870BD240100D000ED00E0CD0100104C
:101F3000F0B557464E46DE464546E0B585B006004C
:101F400002911700EFF3108B72B6674A1368002BEB
:101F5000FCD0BFF35F8F0025644B5D579A46002D80
:101F600000DAA4E06B00624C03935B199B00984677
:101F7000A146C1444B4652469B79103613705D4BC7
:101F8000B2009B68019299580B1B2F2B34D95A4BE6
:101F9000994200D0A4E0039B584A9C46584B6544A4
:101FA000AD006353434602336519E418554B0121D4
:101FB000043B1B1B1B055B0D13436B80524BEF71E6
:101FC000AB80FF23AB71029BAB604B460B43190008
:101FD000484B019A9B689950BFF35F8FBFF35F8FA7
:101FE0000022414B1A608BF3108805B0F0BCBB4651
:101FF000B246A946A046F0BD01200A008243D3792B
:10200000BB422FD845464E46130040491B1B5B413F
:102010005943090D3A4B63533A4B02356519043B5A
:102020005B1B1B05354D5B0D2B4373800426B446AB
:10203000E0444444131F1B1B4C46A17102991B052D
:10204000A16049465B0D2B43A380314BE7710143EF
:102050001360BDE75800C01880002018C679BE4242
:102060002BD902000623D356002BF3DA101D82462B
:102070002848804604267642B446E14450464E46FF
:10208000361A3005400D824656461C489571064367
:102090009680039A944665441D4AAD0064192260F7
:1020A0004246A371029BA280E771A36090E70FF004
:1020B000BFFF002553465D5754E7101D82469088A8
:1020C0004005001584464046D44466460430201836
:1020D000301AE0260005400D360230438046C9E73D
:1020E0000FF0A6FF57E7C046240100D0F1BB002047
:1020F000EC03002000ED00E0CD01001000E0FFFF48
:1021000000A1FFFF1C04002001BDFFFFAAAA0000E0
:102110000148804701BD0000F0B5DE4657464E46F7
:102120004546E0B50C0083B0EFF3108972B65F4A04
:102130001368002BFCD0BFF35F8F5D4B9A680300E0
:1021400010339F00D5595B4A904695423DD0A54239
:102150004ED0594EAA1B2F2A37D8584A9346126898
:102160009446012261469246824011401F2210404F
:1021700052468240924601918022514658468150F3
:10218000BFF35F8FEFF305829346002A32D101231C
:102190002A009A439068844208D17CE04B005B1887
:1021A0009B00F318986884422ED01A0006215156DD
:1021B0000029F3DA84424DD0019B002B1FD0C022AE
:1021C00051463E4B520099501960394B9B68DD5186
:1021D000BFF35F8FBFF35F8F0022344B1A6089F328
:1021E000108803B0F0BCBB46B246A946A046F0BD7D
:1021F0001500EAE79342CAD00FF01AFFC7E7802321
:1022000051462E4AD150E0E706215956002922DBDB
:102210004A005018800034188046A0689860E07921
:10222000D871062020569871002825DBA488F01A62
:102230006405241544440019E0240005400D2402DF
:102240002043988052181E4B9200B6181A781970C5
:10225000B271B1E71300594600290FD1FF319171D6
:102260001849918016490A789A71174A9B1B5B415D
:102270005A43120D0A709FE71448E2E7144A1549C1
:10228000D21A083A5002400D01439980124952086F
:102290000A43DA8090E70621515613000029B7DA85
:1022A0005A46002AEAD14546DCE7C046240100D060
:1022B00000ED00E0CD010010EC03002000E100E0A3
:1022C000F1BB002001BDFFFFAAAA000001BD000074
:1022D0002604002000F0FFFF00F8FFFF70B5012486
:1022E0000443EFF30581EFF3108C72B6214A1368B3
:1022F000002BFCD0BFF35F8F1F4B05001F4AED1A68
:102300006D416A43120D1E4D8900AE6852B2765877
:10231000A6421CD00621595691421CD01221595672
:10232000914222D01E215956914220D02A2159563D
:102330000324914210D0134B19781A708171BFF3A6
:102340005F8F00220B4B1A608CF3108870BDAB6856
:102350000D4C5C50EFE700246100091989005B18FF
:10236000FF21997109499980E5E70124F4E70224E6
:10237000F2E7C046240100D0EC030020AAAA000026
:1023800000ED00E0F1BB0020CD01001001BDFFFF1A
:1023900070B504000E001500FFF73AF901002000A7
:1023A00000F006F8A680E580BFF35F8F70BDC046E1
:1023B000024B9C4661448900016070474000003434
:1023C000F8B5134D134E2C00FF27B5421ED22368DB
:1023D000002B0FD0FFF71CF901002800FFF7E8FFE2
:1023E000A780BFF35F8F0834B4420FD22368250063
:1023F000002BEFD1FFF70CF901002800FFF7D8FF01
:102400002771BFF35F8F0834B442EFD3F8BDC046E5
:10241000E80C0020F00C0020F8B5DE464E4657468A
:102420004546E0B58B4605000A99180016000FF0E6
:102430000BFF0A9B6C001F02324B64199C46A400E0
:102440006444636881469F4200D967602B1FDBB2FA
:102450009846012B30D9C02380229B01E31812013A
:102460001A60294BAD0059599A4600291BD12268A0
:1024700076017240E0268023164042465B01E31855
:102480001E60012A30D9802380229B01E3181201AB
:102490001A6053464A4667605A51F0BCBB46B24682
:1024A000A946A046F8BD58690FF0CEFE431C58005F
:1024B000C0180338FDD2DAE75B46012BCBD1C0232D
:1024C00003229B01E3181A60023AA3681A42FCD067
:1024D000E0232268760156401E4080230A4A5B01B1
:1024E0009246E3181E60AD005A462168514003220F
:1024F0000A401A6001225B469A40A3681A42FCD047
:10250000C1E7C0460080004014120020F0B54646E6
:102510004F46D646C0B51F00344B44009C46241895
:10252000A4006444636888461600FF2B02D8802309
:102530005B006360031FDBB29A46012B30D9C023D6
:1025400080229B01E31812011A60294B850059591A
:10255000994600291BD1226876017240E02680232B
:10256000164052465B01E3181E60012A30D98023D1
:1025700080229B01E31812011A6080235B006360D4
:102580004B465F51E0BCBA46B146A846F0BD58691B
:102590000FF05AFE431C5800C0180338FDD2DAE78A
:1025A0004346012BCBD1C02303229B01E3181A60C1
:1025B000023AA3681A42FCD0E02322687601564012
:1025C0001E4080230A4A5B019146E3181E60850085
:1025D00042462168514003220A401A6001234246C4
:1025E0009340A2681342FCD0C1E7C046008000407F
:1025F00014120020014B8000C058704714120020B4
:1026000010B54024084A83009A181268C00054404C
:10261000C0222240054CA44663441A60044B9C46E9
:102620006044416010BDC04604C0014004D0014078
:10263000004001400B4B80009C46604400290ED1B5
:1026400000230431002A00D11900802203685201BE
:10265000594094460C2360440B40036070470C21A2
:102660000823EFE704C001408000002905D0064B95
:102670009C460223604403607047044B9C4602233F
:1026800060440360F8E7C04604E0014004F0014004
:10269000D0231B061B6830B50500581E8341104827
:1026A0005C42844607203023284023408000EC0809
:1026B000814020000B4D3C3063448000A400415118
:1026C0001B19002A05D080229201944663441960A8
:1026D00030BDC0229201944663441960F8E7C046B9
:1026E0000041014000400140D023F0B5C64604003F
:1026F0001B0698461B680C4F9B00F8580D001600EF
:1027000000B5044209D1044332002900FC500D20D9
:10271000FFF70EFC80BCB846F0BD0FF089FC4346C5
:102720001B689B00F858EEE77CBA002010B5040047
:102730000D20FFF7F1FCD0231B061B6802499B000C
:102740005A58A2435A5010BD7CBA00200123D0220F
:1027500083404021120693629361094A83009A18CC
:102760001268C0005140C0220A4006498C466344AA
:102770001A60054B9C460523604443607047C04681
:1027800004C0014004D0014000400140F8B50400FD
:1027900020481D0017000E000FF056FD0100380004
:1027A0000FF052FD069B29041B0319432368002BDD
:1027B0001EDB194B194DE21853425A4180235B012D
:1027C0009C461203164B62441A60164B1A6017009F
:1027D0002B689F43FBD1144B2660E2182123A06095
:1027E00013602368002BFCDA0823E1601360F8BD56
:1027F0003F2322681340B342DBD1A3681B051B0DA6
:102800008342D6D1EE22E368D20213408B42D0D16C
:10281000EDE7C046001BB7000040FDBF08C0004008
:1028200000E0004000F00040043000008023024A35
:102830009B000B43D362704700800540AA23064AE1
:102840001B0113608D235B00D3600449044B1960A6
:102850005368002BFCDA70470040024000B0FA00D9
:102860000060024010B501F021FA00F01FFB00F0FB
:102870004DFB00F0F7FB05F01BFA01F0A7FA00F0A2
:1028800057F905F085F910BD40BA80B27047C046CF
:1028900000BA7047F8B54746CE4680B50701040038
:1028A0003818000110308146404D414E2B68884653
:1028B000B144002B02D02A7AA24258D0EB68002BF8
:1028C00002D02A7DA2424BD0AB69002B03D020223C
:1028D000AA5CA2423DD06B6A002B03D02C22AA5CDA
:1028E000A2422FD03B191B01F318DB7B002C04D034
:1028F000B27A022A41D0012C06D08D225200B25C5D
:10290000022A43D0022C05D02A4AB25C022A43D0C4
:10291000032C03D0284AB25C022A42D0032B0DD8E4
:10292000264D9B00585905F0B1FC00223C192401AA
:102930003619F37B9B005A510423F373C0BCB9468C
:10294000B046F8BD41464846AA6A984700236B62E4
:10295000C8E741464846EA6998470023AB61BAE7B1
:10296000414648462A6998470023EB60ACE7484651
:102970006A68984700232B60A0E7F27B9A42BAD19D
:1029800004233C1924013619F373D7E72022FF32C0
:10299000B25C9A42B6D1F3E7094AB25C9A42B7D127
:1029A000EEE7084AB25C9A42B8D1E9E7341C00204D
:1029B0006C1C00202A0200003A030000241C0020A6
:1029C0002F0200003F030000F0B5DE464E4657469A
:1029D00045468346E0B5030187B04F4A01935B4407
:1029E0001B01D618F27A012A00D992E04B499200D5
:1029F0008C58002C00D17FE010331D00464B9C46C4
:102A00006544280012F090F9A022123081B29200A1
:102A1000362000F037FD8146002866D003AC0C223A
:102A2000002120000FF0F8FF3089FFF72DFF012370
:102A30002080A3700C22FF3321004846A38000F0C1
:102A4000DBFF374B0C269A464F46013D6B1C9846E0
:102A50006B78002445462E2B06D156E06B78013466
:102A60000135E4B22E2B01D0002BF7D14346EB1AEF
:102A70009BB299462300F318534542DC22003100F3
:102A8000380001F06DF8731C4A469BB23419414678
:102A9000380000F0EDFFA3B22A785E1CB6B2002A1F
:102AA000D4D11C003100380001F05AF81D4B02341B
:102AB0000422029302A9A3B2380000F0D9FF164AFB
:102AC000019B944615495B441B0163448C46DA7AAA
:102AD000DB7B15499B00920058586244352339002E
:102AE00005F05EFB380000F02BFE07B0F0BCBB46E3
:102AF000B246A946A046F0BD0021FFF7CBFEB47256
:102B0000F3E7380000F01CFEEFE7002200239146B7
:102B1000B1E70648FEF7D6F96C1C0020641C0020C3
:102B2000FEFF000000010001241C002034520110AF
:102B30007047C04682B0012801D902B070478000BA
:102B4000002903D00A68044BC250F6E7034A024B3F
:102B500012680192C250F0E7641C0020BC690110A9
:102B6000F0B546464F46D646464BC0B5464E8D2735
:102B70003400002598467F00A37A022B35D02CD84C
:102B8000002B1FD0414B9946414B9A46FEF76AFCF9
:102B9000B37A80B2022B40D0F35D022B43D04B4678
:102BA000F35C022B48D05346F35C022B4DD002233A
:102BB0000122A37200232081E37228002273637331
:102BC000FFF702FF01351134EDB2FF34042DD3D1EC
:102BD000E0BCBA46B146A846F0BD032B4ED12368EF
:102BE000002B13D10023A372ECE7237B013BDBB264
:102BF0002373002BE6D1637B0133DBB26373042BB9
:102C000029D023732800FFF7DFFEDBE7013B2360B9
:102C1000002BD7D10023A372D4E733898342B5D0E8
:102C2000F35D022BBBD11733FF33F35A8342ADD090
:102C30004B46F35C022BB6D18A239B00F35A8342A6
:102C4000A4D05346F35C022BB1D1CE239B00F35AA0
:102C50008342ACD19AE7E37A002B08D1424652680E
:102C6000002A04D001226373E2722273CAE70021B2
:102C70002800FFF70FFE0023A372A3E70548FEF725
:102C800021F9C046641C00206C1C00202A020000B0
:102C90003A03000068520110F0B583B06B469C1DEA
:102CA0000023238001331E000640184205D000296E
:102CB00003DD037801396370013003221300034000
:102CC000104205D00023012938DD03880239023083
:102CD00007294BDD083907220F0097430200050042
:102CE0000832BF182A689A189A429B415B42D21850
:102CF0006B680835D3189342924152429B18AF42F9
:102D0000F0D1CA08551CD200ED00891A1A044019E6
:102D1000120C1B0C9B18012910DD02889B188A1EBF
:102D2000012A05DD45885B19052901DD81885B18CD
:102D300051084D1C6D0049004019511A012901D15B
:102D4000027822702288D218130C1204120C9B18DD
:102D5000180C1B041B0CC018002E04D00306000422
:102D60001B0C000E184380B203B0F0BD1A00D0E770
:102D7000F0B54F46D6464646C0B591461A68089B00
:102D80008A46196804000B041B0C090C5B1811041B
:102D9000090C5918130C5B18180C1B041B0CC318D6
:102DA000180C1B041F0CC719002C21D0FF23002670
:102DB0000125984661896068FFF76EFFC019030C12
:102DC0000004070CDF1963891D4207D042463B0609
:102DD000380A1B0C104003431F006E402468002C6F
:102DE000E8D1002E04D03B063F041B0C3F0E1F43CE
:102DF000534698B2FFF748FD04004846FFF744FDEC
:102E00002018C019030C0004000C1818030C00044F
:102E1000000C1818C04380B2E0BCBA46B146A846C0
:102E2000F0BDC04610B582B0049C0094FFF7A0FF2F
:102E300002B010BD10B5FFF72FFFC04380B210BD28
:102E4000F0B5C646040000B500282AD0FF230026AE
:102E500000270125984661896068FFF71DFFC019AA
:102E6000030C0004070CDF1963891D4207D042469A
:102E70003B06380A1B0C104003431F006E402468B9
:102E8000002CE8D1002E09D03B0638041B0C000EA4
:102E90001843C04380B280BCB846F0BDF84380B24E
:102EA000F9E70148F7E7C046FFFF00007047C0465A
:102EB0007047C04610B50FF091FD041E06D00322E6
:102EC000C31C9343984206D1200010BDFDF724FF98
:102ED000FDF724FFF8E70148FDF7F4FF88520110E1
:102EE00010B5002807D00322C31C9343984205D194
:102EF0000FF086FD10BD0348FDF7E4FF0248FDF723
:102F0000E1FFC046AC520110BC5201102423002244
:102F1000F0B54746CE46904699460332042594467E
:102F200080B5124F124B134CB94441463A682160A8
:102F3000614603338B43002D0BD0168800210022FD
:102F400000E0030001321960981919002360AA42B9
:102F5000F7DB0437B94504D03A689468536855885C
:102F6000E3E7C0BCB946B046F0BDC0469853011077
:102F70001CB2002044BA002010B5082810D80B4B12
:102F80008000C458FDF7C8FEA3681C68002C03D05D
:102F900022681A60A30705D1FDF7C0FE200010BD0E
:102FA0000024FBE70248FDF78DFFC046985301104F
:102FB000E852011070B50C0008280ED800290CD07A
:102FC000084B8000C5588B0708D1FDF7A5FEAB68FC
:102FD0001A6822601C60FDF7A1FE70BD0248FDF773
:102FE00071FFC046985301100C5301100C20404251
:102FF0007047C04670B505000C00160082B000296D
:103000002AD043680A689A4201D102B070BD336089
:10301000300001A9019201F04BFE300001A905F03A
:1030200061F901A9300000F021FE392322686A60AD
:10303000E95C343B0B40052B05D0EB69002BE4D059
:1030400028009847E1E7002AF7D00B07F5D52800BC
:10305000291D09F0C9F9F0E70148FDF733FFC04623
:10306000BC5301107047C046F0B5C64600B5040019
:103070000E001700984682B000286AD0099B002BEA
:1030800067D0002900D174E0002F00D16FE04346E3
:10309000002B69D03F4B00256361002239232000BB
:1030A0006560A560E56025860021E2542830042291
:1030B0000FF0B2FC089BE56163623C232562364D4C
:1030C0002A78E2540A9B23613368002B3AD13100FD
:1030D000200001AAFFF78EFF0122A168E0683B688B
:1030E000994200D0A36043461B68984200D0E36039
:1030F000002A33D02000099B9847002829D1274B6C
:103100003C2698461F683C23E05C00239C46FF2831
:1031100002D163460020A355002F2CD0BC4236D0EC
:103120003B00FF2207E01B68002B24D09C422ED0DE
:10313000013A002A0AD0995D8142F4D10130C0B22F
:10314000A055E4E7002000210022C8E71448FDF75D
:10315000B9FE002002B080BCB846F0BD31002000AE
:1031600001AAFFF747FFC5E70E4B984692E70D4FC0
:103170008DE70C4E88E7FE2807D00130C0B24346E9
:103180002870276020001C60E4E70020F7E706486D
:10319000FDF798FEED2F0010F2BB002064BA00206E
:1031A000E0530110BC690110CC530110F0B50400CC
:1031B0000D0016001F0083B000294ED0002E4AD00B
:1031C000002F46D02B680022002B0CD03368A1685A
:1031D0008B4200D0A3603B68E1688B4230D1002A6B
:1031E00031D003B0F0BD616801220029EED06846FD
:1031F000009101A9019301F05BFD684601A905F06A
:1032000071F801A9684600F031FD39232A6862602F
:10321000E15C343B0B40052B07D1002A05D00B079E
:1032200003D52000211D09F0DFF8E369002B01D050
:10323000200098473368A16801228B42CBD0C9E7B0
:10324000E360002ACDD16A4629002000FFF7D2FEB4
:10325000C7E7034FB6E7024EB2E7014DAEE7C046FF
:10326000BC69011070B5041E16D04368002B17D13D
:1032700039220121A35C194224D11D4B1A68A242B4
:103280002ED01C4A1368A34204D126E01A68A24239
:1032900003D01300002BF9D170BD22681A60FBE740
:1032A000051D0021280001F003FD0021280005F084
:1032B00019F80021280000F0D9FC39220121A35C73
:1032C0001942DAD018008843A0541B070BD4E369D5
:1032D000002BD2D020009847CFE723681360DBE7AC
:1032E00000221A60CDE7200008F0DCFCEFE7C046C2
:1032F00060BA002064BA0020014B18607047C046D5
:1033000060BA002070B5041E15D03925435DDA0778
:1033100011D401221343DBB24355C269002A01D004
:103320009047635D05221A40052A04D16268002A8D
:1033300001D01B0700D470BD2000211D09F054F8F6
:10334000F9E7C04670B5041E03D03925435D5A071E
:1033500000D570BD04221343435505F067FF0523D4
:10336000625D1340052B05D0236A002BF1D02000AD
:103370009847EEE76368002BF6D01307F4D52000DA
:10338000211D09F031F8EFE710B500280AD03922E5
:103390000421835C194205D08B438354036A002BBC
:1033A00000D0984710BDC046021E0ED0084B1868CA
:1033B000002809D03C2102E00068002804D0435CCA
:1033C0000133DBB29342F7D170470020FCE7C046DF
:1033D00064BA0020F8B505000026002826D00F2783
:1033E0000BE0012B24D0002B2AD12800FFF778FD19
:1033F0000136F6B2002C19D02500FDF78DFCAC7B10
:10340000002C1AD0013CE4B2AC73FDF787FC002C11
:103410000CD12B7B2C683B40022BE2D129000820E9
:103420000136FFF7C7FDF6B2002CE5D13000F8BD3C
:1034300029000720FFF7BEFDDAE70348FDF742FD4C
:103440000248FDF73FFDC0461054011028540110FA
:1034500010B5FDF761FC0022084B1A70FDF75EFC09
:10346000074B1868002803D107E0C068002804D083
:10347000436F002BF9D001F069FC10BDF3BB0020B5
:10348000A4BB0020F0B5C1234F46D64646460400F3
:10349000C0B50D0017005B009A423CD008D814005C
:1034A000433BFF3B9C43012C68D03C48FDF70AFDA1
:1034B000A0239B009A42F8D10327C31CCA1CBA431D
:1034C000BB439B18180010309A421DD882421BD86B
:1034D000FFF7F0FC061E18D0002304190360133414
:1034E0002F4B2904BC430D4344608560C3600CE04E
:1034F000FDF712FC01222B4B1A70FDF70FFC002E7A
:1035000002D03000FFF766FF00263000E0BCBA466C
:10351000B146A846F0BD00239846234B00269A46A4
:1035200000230327994684B207E043466D1AADB2E3
:103530001860002DE9D0804600240820FFF71CFD0C
:103540000028D5D05246E31CBB43D31A1A1C9BB2A9
:10355000AB4200D92A1C4B46041903601334134BA9
:10356000BC4391B2446005814281C360002EDCD12E
:103570006D1AADB20600002DDDD1C6E70720FFF7BA
:10358000FBFC061EC1D0002329040D4303604360E9
:10359000856007734373C481B7E7C0463C5401108C
:1035A00080000100F3BB0020EC0500008200010058
:1035B00070B5041E33D002898A421CD90D008A1AC4
:1035C00007E023896D1A9B1823812468ADB2002C73
:1035D0001FD06189A942F4D3237B1B0701D1A942E3
:1035E0000AD1290420682943A160002801D0FFF7EF
:1035F000F1FE0023236070BD63682000191B491988
:10360000FFF756FC002807D08442EAD00548FDF7B2
:1036100059FC0548FDF756FC0448FDF753FC0448E7
:10362000FDF750FCA454011070540110885401108F
:1036300058540110030070B5002820D08022520297
:1036400091421AD2002916D002898CB2A21892B2E5
:10365000944212D8057B01207F2D0DD95D68691A2F
:103660001D001035A94207D35960598900206418FC
:103670005C811A8100E0002070BD0120FCE7014858
:10368000FDF720FCC054011010B5002818D080238D
:103690005B02994212D200290ED043898AB29A4223
:1036A0000CD844689B1AA4464381038961449A1A42
:1036B00041600281002010BD0020FCE70120FAE7F4
:1036C0000148FDF7FFFBC046C054011010B50029AA
:1036D00015DB00282FD0002923D003898AB2D31804
:1036E0009BB29A4225D8047B7F2C1CD84468611A6F
:1036F00041604189038152184281002010BD002899
:1037000019D0494243898AB29A4212D844689B1A16
:10371000A4464381038961449A1A416002810020D2
:10372000ECE70020EAE74468611A04001034A14283
:10373000DED20120E2E70148FDF7C4FBC0540110CE
:1037400010B5002802D0FFF745FE10BD0148FDF777
:10375000B9FBC046C054011003000020002B04D068
:103760001B68013080B2002BFAD1704710B5041EDF
:1037700009D0FDF7D1FAA37B0133A373FDF7CEFA8D
:10378000A37B002B00D010BD0148FDF79BFBC0467A
:10379000CC54011010B5002814D0002912D00368B1
:1037A000002B07D002890C891219028118001B68AE
:1037B000002BF7D102894389934204D10A89016021
:1037C0009B18038110BD0148FDF77CFBE0540110FC
:1037D00010B50C0000281FD000291CD00368002B56
:1037E00007D0028921895218028118001B68002B1A
:1037F000F7D102894389934214D1228904609B182E
:103800000381FDF789FAA37B0133A373FDF786FAE1
:10381000A37B002B03D010BD0029FCD0F1E70348A7
:10382000FDF750FB0248FDF74DFBC046CC5401109C
:10383000E0540110F0B54F46D64646468146C0B525
:10384000884692461F00002900D184E00B899342EC
:1038500000D280E0002800D17DE053460289FB18A9
:103860009A4200DA77E0002644890CE043465A8900
:103870001B899A423DD04B465C891B899C424DD0A6
:103880005346002B57D043465B89E41B9B1B9C424D
:1038900000D91C005546A24500D925004B465B685F
:1038A0002A00D81943465B687F1999190FF0BAF8B6
:1038B000534676195D1BABB29A464B465C89BC42B7
:1038C0004CD343465B89B3424BD305D143461B6877
:1038D00000269846002B17D0BC42C7D14B461B6828
:1038E0009946002B1FD043465A891B8900279A42CC
:1038F000C1D143461B68002BBDD006204042E0BC2E
:10390000BA46B146A846F0BD5346002B23D1BC426F
:1039100019D04B461B899C420DD100264B461B6893
:10392000002BADD0E9E75346002B14D143461A894A
:103930005B899A4201D00020E1E743461B68002BD7
:10394000DBD10020DBE74B461B689946002BF2D009
:1039500000275C89DDE710204042D0E70248FDF7F0
:10396000B1FA0248FDF7AEFA1055011028550110C2
:1039700010B5002904D000230A89FFF75BFF10BDB2
:1039800010204042FBE7C046F0B5C6460500884619
:1039900016001900002700B5002828D04346002B48
:1039A00025D0002A05D122E02D68091B89B2002DFF
:1039B0001DD06C89002901D0A142F5D2641AA4B2AD
:1039C000321CA64200D9221C4346D8196B6894B217
:1039D0009C46361B22006144E719B6B20FF022F86C
:1039E000BFB22D68002E02D00021002DE1D1380099
:1039F00080BCB846F0BDC046F8B5CE464746050087
:103A00008846914680B5002824D0002922D0038919
:103A100093421CD316000027002A02D112E0002D89
:103A20001BD06C89B44200D9340043466868D91968
:103A300022000EF0F7FF361B2D683F19002EEED145
:103A4000B9450DD10020C0BCB946B046F8BD012033
:103A50004042F8E710204042F5E70348FDF732FA0C
:103A60000248FDF72FFAC046445501105C5501107D
:103A7000F0B5D6464F46464604008A46C0B50028F3
:103A800005D13AE024685B1B9BB2002C35D06589D8
:103A90009D42F7D921899F18B9422EDBE91A8A4243
:103AA00032DD8AB2904662685146D0187D1B42468C
:103AB0000EF0B8FFABB29946002B1CD02568002D44
:103AC00029D02B894B4518D34F46002601E0002D05
:103AD00024D06C89BC4200D93C004346F118686888
:103AE000220051440EF09EFF3F1B2D683619002F17
:103AF000EDD1B14515D1002001E001204042E0BCEC
:103B0000BA46B146A846F0BD60685146C0180EF0EE
:103B100089FF0020F3E710204042F0E70248FDF75C
:103B2000D1F90248FDF7CEF9445501105C5501105A
:103B30000B0070B5150011891A00FFF7A3FC041ED5
:103B400006D0002329002A89FFF774FE002801D13E
:103B5000200070BD0148FDF7B5F9C046745501104D
:103B600005E043898B4205D8C91A006889B200284C
:103B7000F7D1704743685A54FBE7C046F0B5DE46BC
:103B8000454657464E468146E0B5344F83B03968C6
:103B9000786909F097FD4B465A68314B80461C689E
:103BA0009B460020557A002C3AD00026844604E03B
:103BB000E3682600002B32D01C00237CAB42F7D1F7
:103BC000217A002906D03C237868C35C0133DBB23C
:103BD0009942EDD14346002B29D02368002BE7D131
:103BE0000121637C194203D0636839698B42DFD1BC
:103BF00063699A46002BDBD0019221004A46194B9B
:103C0000A069D047002819D14B465A68019B9A42B7
:103C100021D102239C46E3682600002BCCD16046CC
:103C200003B0F0BCBB46B246A946A046F0BD23682F
:103C3000002BD5D079698B42BAD1D1E7002E08D0BC
:103C4000E3680120F3605B461B68E3605B461C6031
:103C5000E6E70120E4E70448FDF734F9C820002036
:103C600084BA0020D82000208855011010B5002803
:103C700011D00268002A0ED000290CD00B68002B4E
:103C800009D0094B1B68002B05D01C68944203D057
:103C9000DB68002BF9D110BD0A681A60DB68002BC5
:103CA000F9D00268F1E7C04684BA00207047C046E8
:103CB00010B5041E23D0037D042B05D0072B0FD095
:103CC0000020032B00D010BD200003F029F80028AD
:103CD0000AD105232375200003F04EFB0020F2E7F4
:103CE00003F01EF8002807D0431CECD10822638B98
:103CF000002013436383E6E709232375EBE70148BC
:103D0000FDF7E0F8D455011070B50600806F00286B
:103D100003D0FFF715FD0023B367746F002C18D094
:103D20006068256800280CD0FFF70AFD21000420F8
:103D3000FFF740F9002D0AD02C00606825680028A4
:103D4000F2D121000420FFF735F9002DF4D1002332
:103D500073670123F46E5B423386002C16D06068D3
:103D6000256800280CD0FFF7EBFC21000420FFF7AA
:103D700021F9002D0AD02C00606825680028F2D1B6
:103D800021000420FFF716F9002DF4D1346F002C28
:103D900016D06068256800280CD0FFF7D1FC210000
:103DA0000420FFF707F9002D0AD02C006068256871
:103DB0000028F2D121000420FFF7FCF8002DF4D1F7
:103DC00000236822F3663367B35270BD10B5FDF768
:103DD00049FB044B80049C46800C034B60441880D4
:103DE00010BDC04600C0FFFF3804002010B5037DA1
:103DF0000100012B03D00220FFF7DCF810BD0148C1
:103E0000FDF760F8E0550110F8B5031E1FD0078DCF
:103E1000C16A456A5C8E114E781A4019221CB44260
:103E20000BD892B2821A0CD5491B0CD480225202B4
:103E300091420FD200205985F8BD321C92B2821AED
:103E4000F2D45F85F8E7002200205A85F4E70448A1
:103E5000FDF738F80348FDF735F8C046D0160000E6
:103E6000F455011018560110F8B500281DD0037D37
:103E7000012B34D0028D1D4B511889B299421BD9A8
:103E80001900466A458E1A4FC46A0185F3182A1C28
:103E9000BD420BD892B212199A1A11D5A41B1BD489
:103EA0008022520294421DD24485F8BD3A1C92B23F
:103EB00012199A1AF2D403E08A42E1D80B00E0E723
:103EC0000C4A41851B1B9342EFD90222438B1343BB
:103ED000438303F051FAE8E700234385E5E706480A
:103EE000FCF7F0FF0548FCF7EDFFC046A02D0000F1
:103EF000D0160000670B0000345601101856011050
:103F0000F0B5DE46454657464E46E0B5BF4DC04A81
:103F10002B6887B001332B60BD4B1B7801331370C6
:103F2000BC4B9B465B461C68002C00D1CCE00023B8
:103F30000593237D002B00D112E2012B00D115E265
:103F40000A2B00D10FE2B24AA17F1278914200D130
:103F500058E1A2774222A25C022B00D1FDE00B2A9D
:103F600000D9F7E0A122A65C002E00D15AE1226F11
:103F7000002A00D012E2E26E002A00D10BE2A22257
:103F8000A25C0B2A00D9E5E0A020A34A9619013EC5
:103F90003178225C8A4200D28DE16023E15A002907
:103FA00000D0B9E0200003F0F1FC002800D0BFE011
:103FB000A0230022E254A132A35C062B00D9B7E073
:103FC000012700260133A354237D062B00D1B5E041
:103FD00008210800627A10408046114227D0042B45
:103FE00000D05EE12B68226AFA219B1A994694233D
:103FF000E35849009A469823E35898469C23E05892
:104000004346584350440EF01FF9814500D93EE124
:10401000A3274346E05DFA2143431800490050447A
:104020000EF012F900239846814500D94AE1676FE6
:10403000002F0AD02B68226A9A1A4023E15E4B00B7
:104040005B185B009A4200D305E1237D032B00D16E
:104050008AE0092B00D0AEE02B68226A9B1AF02B75
:1040600000D887E09023E6582000FFF74DFE059B1F
:10407000002B00D1ADE05B461B68A34200D17EE17E
:10408000059BE268DA604346002B00D0ADE023696F
:104090009946E3689846237D012B00D16CE121000D
:1040A0000220FEF787FF00235C4C2370002E07D010
:1040B0000D2148464942B0472378002B00D031E714
:1040C0004446002C00D034E7554F002439680029BD
:1040D00004D11AE00C00C968002916D00B7D0A2B08
:1040E00000D046E12B680A6A9B1AF02BF2D9002C0B
:1040F00000D1DAE03B688B4200D143E1CE68E66054
:104100000220FEF757FF311EE8D107B0F0BCBB46D6
:10411000B246A946A046F0BD200002F01FFD0028CF
:1041200000D045E7200003F027F9002800D03FE742
:10413000237D01270026062B00D049E7638BDB0691
:1041400005D52B68226A9B1A282B00D93E00002334
:1041500098466CE70227012637E7052A00D801E7D1
:1041600000230126984662E72B68226A9B1A282BB7
:1041700000D977E7002E00D074E7237F627F0133F8
:10418000DBB2E66823779A4212D80023234A2377CA
:1041900013708C33E358002B00D17CE021002069A0
:1041A00098471E4B1B78002B00D0BBE6002872D02E
:1041B0000594340085E7002EDFD09022A658012B0D
:1041C00000D854E70A2B00D04EE7059B002B00D007
:1041D00051E75B461B68A34200D0D9E05B46E2682A
:1041E0001A604346002B00D151E7238B626A216D90
:1041F0000293E38A20000193231D0093230002F021
:1042000085FF44E70594E4685BE7C046B4BB002043
:10421000F8BB0020A4BB0020B8590110F6BB002059
:10422000B8BB00203022A15E5E48228E824202D8B6
:10423000013211B221864022A25E01278A4200DDAE
:10424000C3E6200002F094FE002848D0236F002B24
:1042500042D0237DB9E67868A1463C6800280CD09E
:10426000FFF76EFA39000420FEF7A4FE002C0AD0F6
:10427000270078683C680028F2D139000420FEF756
:1042800099FE002CF4D14C4600236367DDE6012340
:104290003E009846CBE6200003F06EF8059434000B
:1042A0000FE7072B00D19DE651E73B688B426CD1AD
:1042B000CE683E6024E70132D2B222548A4200D254
:1042C00037E76AE6200003F0F1FA002800D0AEE6F6
:1042D000E35D0133E355AAE6E36E002BB9D0237DFD
:1042E000022B13D03C22A35E3E21625EDB109B18A2
:1042F0004222A15C0A1C0C2929D82B49D2B28A5C23
:104300009340284A934220DC4022A35200234821B4
:1043100023866033E25A605A131C824200D9031C80
:104320004A209BB25B082352618E4A0092B29342AC
:1043300000D2225248230022E1522233E2522000CE
:1043400003F050FA0127237D3FE6184BDCE70C22EF
:104350001549D2B28A5C9340124A9342D4DDF4E705
:104360001348FCF7AFFD1348FCF7ACFD1248FCF70F
:10437000A9FD1248FCF7A6FD1148FCF7A3FD114862
:10438000FCF7A0FD1048FCF79DFD1048FCF79AFDD6
:104390000F48FCF797FD0F48FCF794FD0E48FCF71B
:1043A00091FDC046FE7F000098590110FF7F00007C
:1043B0005C560110B456011088560110A457011024
:1043C000E05501104C570110D4570110FC57011053
:1043D0007857011014570110E056011070B5041EF3
:1043E00016D06068256800280CD0FFF7A9F92100D5
:1043F0000420FEF7DFFD002D0AD02C006068256840
:104400000028F2D121000420FEF7D4FD002DF4D1C4
:1044100070BDC04610B5041E08D04068002801D009
:10442000FFF78EF921000420FEF7C4FD10BDC04641
:1044300070B5051E0DD00420FEF79EFD041E06D0AB
:10444000102229000EF0EEFA6068FFF78FF92000C5
:1044500070BD0148FCF736FD2458011010B5002846
:1044600006D0037D012B03D90A2B01D0FFF74CFCAA
:1044700010BDC04610B50C1E47D0002848D00368B8
:104480008B4204D12FE0DA68A24224D01300002B23
:10449000F9D10023E360237D002B0FD1638BDA0772
:1044A00029D4E36E002B36D1236F002B36D1636FF6
:1044B000002B36D100232375E38210BD0A2BF0D0E8
:1044C000012BF7D02000FFF71FFC237D0A2BE8D03B
:1044D000012BEFD0E2E7E268DA600023E360237D9E
:1044E000002BEBD1DAE7CB6803600023E360237D88
:1044F000002BE3D1D2E7022213436383200002F0B2
:104500003BFF237D012BD5D0CBE70748FCF7DAFC36
:104510000648FCF7D7FC0648FCF7D4FC0548FCF736
:10452000D1FC0548FCF7CEFC405801105C58011046
:104530007C58011094580110B0580110F0B54E4647
:104540004546DE465746E0B505000E0087B0002818
:1045500067D0037D012B00D1B3E00A2B00D1A1E08D
:10456000026D9246426A05929022825893460269F1
:104570009146002B63D1C38A00269846002B67D052
:10458000534A1368834257D1C368136000232C6FCA
:1045900098460026EB60002C5DD1EC6E002C16D006
:1045A0006068276800280CD0FFF7CAF821000420B3
:1045B000FEF700FD002F0AD03C0060682768002845
:1045C000F2D121000420FEF7F5FC002FF4D16C6F2E
:1045D000002C16D06068276800280CD0FFF7B0F8D0
:1045E00021000420FEF7E6FC002F0AD03C006068A2
:1045F00027680028F2D121000420FEF7DBFC002F01
:10460000F4D1002E41D12B7D012B5DD02900022059
:10461000FEF7D0FC5B46002B03D00D2148464942F3
:10462000D84707B0F0BCBB46B246A946A046F0BD8D
:10463000DA68AA4242D01300002BF9D1A6E7C38A58
:10464000010024489846FFF715FF0122224B1A70FB
:104650002C6F002CA1D06068276800280CD0FFF7D1
:104660006FF821000420FEF7A5FC002F95D03C0038
:10467000606827680028F2D121000420FEF79AFC28
:10468000002F00D189E73C00F2E72B8B51460293C3
:10469000434601932B1D009328002B00059A02F03E
:1046A00035FDB0E701000D48FFF7E4FE2B7D012B3F
:1046B0000AD029000220FEF77DFCB2E7EA68DA6042
:1046C00064E70748FCF7FEFB0648FCF7FBFBC04627
:1046D000A8BB0020A4BB0020F6BB0020B8BB002074
:1046E000C8580110E055011010B50121FFF726FF51
:1046F00010BDC046F0B5C646050000B50220FEF765
:104700003BFC041E2AD0A422002120000EF084F9D4
:104710006423604A6575E2525F4B4022A362FF2327
:10472000E372F93BA352E3875C4B5D4A23635D4B25
:104730001B6823625C4B1B78A3775C4BA3648423C8
:10474000E2505B4A1033E2505A4A0433E2500922E5
:104750000433E250200080BCB846F0BD0827564E16
:104760003468002C0AD02000438BE4681F42F8D044
:10477000BB434383FFF79CFA002CF4D14F4B1868DE
:10478000002812D0474B1C68036AE11AC368002B4B
:1047900008D01A6AA21A914201D811001800DB68E9
:1047A000002BF6D10121FFF7C9FE0220FEF7E4FB42
:1047B000041EA8D13368002B16D03A4A0021106895
:1047C00002E0DB68002B09D01A7D092AF9D11A6AA8
:1047D000821A9142F5D811001C00F2E7002C03D098
:1047E00000212000FFF7AAFE0220FEF7C5FB041EF1
:1047F00000D088E73368002B16D02A4A00211068C1
:1048000002E0DB68002B09D01A7D082AF9D11A6A68
:10481000821A8A42F5D311001C00F2E7002C03D063
:1048200000212000FFF78AFE0220FEF7A5FB041EF0
:1048300000D068E76BB2002B2ADB002D21D02A00C4
:104840003368013AD2B2002B1BD016490F68002101
:10485000884607E0186A3A1A90461C000A00DB688E
:10486000002B08D0597D8A42F4D8F8D1186A3E1A34
:104870004645F4D3EFE7002C03D001212000FFF7D9
:104880005DFE0220FEF778FB041E00D162E73AE7E6
:104890007F22D5E7A02D0000A02DA02DFFFF18023C
:1048A0004D4A0010B4BB0020F8BB00200100A02D31
:1048B00000DD6D00F8240100A4BB0020B8BB00207F
:1048C00030B5040085B0002800D19FE0037D0029A9
:1048D00003D0042B0DD0072B0BD0012B00D169E0A6
:1048E000022B4ED0002B3BD02000FFF7E1F905B0A2
:1048F00030BDA26F002A54D0638BDB0600D488E061
:10490000238B20000293E38A626A0193231D0093A4
:10491000216D230002F0FAFB237D012B04D90A2B21
:1049200002D02000FFF7F0F93D4A1368A34214D1EA
:10493000E368136000230122E3603A4B1A703A4B9C
:104940001B68A34232D0237D012B24D13748FCF7CA
:10495000B9FADA68A24250D01300002BF9D1E9E786
:10496000E38A002B17D0324A1368A34204D14AE0ED
:10497000DA68A24244D01300002BF9D10023E3608F
:1049800009E021002648FFF775FD0122254B1A702A
:10499000237D012BDAD002202100FEF70BFB002043
:1049A000A5E7244A218D9142A6D196E701F08CFF1C
:1049B00000209CE7204A002110000C3053681B683F
:1049C000002B05D0DD6FAC4212D0DB68002BF9D193
:1049D00004329042F2D121001848FFF74BFD237DAD
:1049E000012B19D003202100FEF7E4FA00207EE716
:1049F000D967DB68002BE5D1EAE7E268DA6099E77E
:104A0000E268DA60BAE7E3681360B7E70C48FCF7DE
:104A100059FA0C48FCF756FA0B48FCF753FAC04613
:104A2000A4BB0020F6BB0020ACBB0020E055011069
:104A3000A8BB0020A02D0000A8590110B0BB002089
:104A4000FC5801101C59011038590110F0B5C64628
:104A50000C00150000B500294ED0002A2AD00B7D8D
:104A6000012B4CD01389098D284ACB189BB2934255
:104A70001CD913009046676A668E254AE06A238532
:104A8000B844311C964200D9111C424689B209181B
:104A9000511A18D5C01B13D480235B02984231D21F
:104AA00060852800FEF74CFE002006E09942E0D821
:104AB0001A00DFE70020002B12D080BCB846F0BD02
:104AC00000236385EDE76385124B121A9A42E8D9F9
:104AD0000222638B20001343638302F04DFCE0E766
:104AE0000B7D012B03D010224B8B13434B830121F1
:104AF0002000FFF7E5FEE0E710204042DDE7064832
:104B0000FCF7E0F90548FCF7DDF9C046A02D0000F0
:104B1000D0160000670B0000345601101856011023
:104B2000F8B5041E32D00023856F6F7B8367843312
:104B3000C658002E0CD0010000232A000069B0479F
:104B400000280BD00D301ED00520A5674042F8BDCF
:104B50002989FFF789F92800FEF7F2FDBB0610D579
:104B6000238D0C4A934201D0013323858423E558D9
:104B7000002D06D00023002221002069A8470D3017
:104B800001D00020E3E70D204042E0E71020404242
:104B9000DDE7C046A02D0000F0B54F464646D6469C
:104BA000C0B5204D204F2B7801332B701F4B9946F9
:104BB000012398464B461C68002C1BD008262B78F6
:104BC000A27F9A421BD04246A377638B1A421ED122
:104BD0001E4216D1E3689A46A36F002B07D000232C
:104BE00020003B70FFF79CFF3B78002BE2D154463E
:104BF000002CE4D1E0BCBA46B146A846F0BDE4685A
:104C0000F6E7B34320006383FFF752F8E2E702229E
:104C100013436383200002F0AFFB0322638B9343B3
:104C20006383D5E7F8BB0020F6BB0020A4BB0020BF
:104C300010B5FFF7B1FF054A13780133DBB21370EB
:104C4000DB0700D410BDFFF75BF9FBE7F7BB0020E3
:104C500010B5002807D0054B054A10681A6894461D
:104C60006044186010BD0348FCF72CF934040020A0
:104C7000B4BB00205459011010B5002A12D00029ED
:104C80000AD00B8E002B07D0282B06D9283B1A1CE4
:104C90009BB2834203D890B210BD0020FCE7021CF7
:104CA00090B2F9E70148FCF70DF9C04670590110C0
:104CB00070B504000D00002802D00368002B00D15D
:104CC00070BD1F4A1068002805D00268934226D0A4
:104CD000C0680028F9D11B4B1868002806D023684B
:104CE00002689A4224D0C0680028F9D1002DE7D08C
:104CF0002B68002BE4D0144B1A68002AE0D02368FC
:104D00001168994205D0D268002AD9D01168994219
:104D1000F9D12B681360D268002AF0D1D0E7C668B9
:104D20000121FFF70BFC002ED5D030002368CCE723
:104D3000C6680121FFF702FC002ED7D03000CEE775
:104D4000A4BB0020A8BB0020B0BB002070B5446FFE
:104D50000600002C18D06068256800280CD0FEF7EB
:104D6000EFFC21000420FEF725F9002D0AD02C00CD
:104D7000606825680028F2D121000420FEF71AF9A6
:104D8000002DF4D10023736770BDC046F8B5DE4630
:104D900057464E464546E0B5002800D1ABE0574B9C
:104DA0001D88002D46D0564B994600234A46138055
:104DB000544B00221E68544B1F881B78984641466E
:104DC000C943524B8A461B6851499C468B46002377
:104DD000002E1FD0140014346444954200D87EE0A5
:104DE000531C9BB297422BD85146C918C9B2715C6B
:104DF000012928D002292AD0002919D09F4252D94E
:104E000063441B7D012B00D871E0D218012392B2BC
:104E1000002EDFD111001431614495425FD90C7826
:104E2000531C9BB2012C50D0022C4BD0002CE7D14C
:104E30004A461380F0BCBB46B246A946A046F8BD20
:104E400021780129D6D11A0001340123C5E7911C2C
:104E500089B29F4222D963441B7D042B44D14B1C51
:104E6000AB4241DAD31C9BB2002E32D08F421FD806
:104E70004446091BC9B2715C0432090292B29F42D6
:104E80001DD844461B1BDBB2F35C0B43591E89B291
:104E9000594500D91F4B43860123B9E744461B1BE4
:104EA000DBB2F35CD9E741465B1ADBB2F35CA9E7FE
:104EB0006144097D0432090292B29F42E1D9634400
:104EC0001B7DE2E7911C89B2C5E71A00013101237D
:104ED000A3E76144097D0432090292B2EFE7002B97
:104EE000A8D04B461A80A5E74B461980A2E74B464F
:104EF00002321A809EE70848FBF7E4FFE6BB002079
:104F0000E2BB0020C0BB0020E4BB0020BCBB0020F3
:104F1000B3050000B4050000C0590110F0B5D64635
:104F20004F46464605000C00C0B500285FD0C36858
:104F3000587B1A7B00021043FDF7A6FCC30751D42F
:104F400001239A46FE3398462A4E336899462B89A8
:104F50004B449C46E36858791A79997900021043CA
:104F6000090408436146DA79120602432089801851
:104F7000081A2DD4587B1A7B00021043FDF784FCDD
:104F80005346034207D127682000FFF743FA002F5A
:104F900017D03C00D9E7EB6801201F7B5B7B1B022D
:104FA0001F43FDF771FC41463843EA6883B2276826
:104FB00008401B0A107353732000FFF72BFA002FD1
:104FC000E7D100242C60E0BCBA46B146A846F0BD4B
:104FD000531AF7D54B46D21A91B268682981FEF769
:104FE000E7FAEFE72000FFF7F9F90024EAE70248C3
:104FF000FBF768FF98BA0020DC590110F0B557465E
:10500000DE464E464546E0B583B007000C1E0192D1
:1050100046D02D4B9B46662398462C4B99465B46C3
:10502000E1681D684B7908798A791B020343C879C6
:105030001204134300061843FDF72AFC23890600D7
:105040009A46E368AD1B587B1A7B00021043FDF7BC
:105050001BFC5346ED1A03231840431E98412D1A9A
:105060002AD460682568FEF777FB4346FB5A9842CE
:1050700027D842461B1ABB524A4623891288200071
:105080009B184A461380FFF7C5F94346FB5A002B8D
:105090000ED0002D01D02C00C1E7019B002B0DD0BC
:1050A000002003B0F0BCBB46B246A946A046F0BD06
:1050B000002DF5D02C00B2E72000F2E70448FBF702
:1050C00001FF0448FBF7FEFEFC0F0020E0BB0020C0
:1050D0002C5A0110045A0110F0B5DE4657464E46D0
:1050E0004546E0B5040083B0002801D100F0C3FCC0
:1050F000017D032901D800F0C1FCAB4B1B78DB0616
:1051000054D4AA4EAA4D33882A689C466346002B85
:1051100000D194E0217D062900D990E0636A991AB4
:10512000012900D554E1D84367468018F84200D5DC
:105130004EE1A04F7868002801D100F0D6FC9E4BCC
:10514000994201D900F0CEFC028989B28A4201D28B
:1051500000F0C5FC3B89521A5B1A3B8193B298461A
:1051600043898B420BD2002294464246C91A6346B9
:1051700002814381006889B243898B42F6D3FEF7EE
:1051800083FA636AFA68190A51711902090E91715A
:10519000190E2B601371D171228DD218DB43DA42C4
:1051A00000D454E2200002F0BDF850E06023C35A5E
:1051B0007F4D9946836D2A689A46436D981A15D497
:1051C000934200D151E17D4B186800934B46D34682
:1051D000824520D17A4B1E68B37B9C46F37B6646A2
:1051E0001B02334399450CD34B4614E0734B1868AC
:1051F0000093734B1E68B37B9C46F37B66461B0291
:1052000033436026A3530236A75B9F4200D2A353C9
:1052100083466265A065666CB046361A23D4634E39
:105220003788BC46002F00D091E049465B4451448A
:105230008B4200D1AAE1636B002B00D08BE0636A44
:10524000D11A0BD4D243218DCB18D34206D403B04C
:10525000F0BCBB46B246A946A046F0BD0222638B15
:1052600013436383F3E74346DB43C34200D504E1C2
:10527000236D1B1A00D500E104231E00628B16402B
:10528000134200D09BE14633E35A9C464823E15A3F
:105290003C27E35FE78FDB10B94640274B44E353DD
:1052A00043460237C31AE6539BB260648C4500D86C
:1052B0009BE180200001024050424241608E013259
:1052C0004243101C92B29A4200D9181C081880B2AE
:1052D000884200D293E14822A052E26E216F200062
:1052E000FFF78CFEE16E020020672000FFF786FECC
:1052F000216FE0664B424B415B42238600232377BC
:10530000002800D180E164222E4EA35A36889B19D2
:10531000A352638B1A0500D4B2E0002900D1CCE27D
:10532000C9684A7908798B7912020243C8791B044B
:105330001A4300061043FDF7ABFAE36CC01A00D520
:105340009EE0638B204A194E1340638399E0636BA0
:10535000002B00D1DFE6A16B081A00D4D6E69BB281
:105360009A461A493C23E05E0988C710BFB2CB1B9E
:10537000884651465B1A9BB2181800B219B2A08732
:10538000002903DA4346FB1A53449BB23E27E15FF0
:10539000C0108F10C91B5B1840219BB2E3871B18FC
:1053A000635200236363B1E6F0BB0020E8BB00203A
:1053B00098BA0020B8200020FEFF0000FC0F00205B
:1053C000BCBB0020E0BB0020FFF7FFFFB4BB002008
:1053D000D11A00D5D5E0D14389464846218DC91858
:1053E000C14200D5DEE6934200D12FE10023676F72
:1053F0009846531E002F00D164E2B4461600424680
:10540000A84601940093F96848790B790002034398
:105410009A4650468B791B040343C8790006034320
:10542000B34200D1F3E0002A33D0D0680479A34618
:1054300044792402A2465C4655462C43A246847910
:10544000C0792404A34654465D4600062C432043FD
:10545000009C201A03D44846C34200D43FE2386877
:105460003A00002823D00700CDE7B94B1868009315
:1054700053461B1A00D4A9E6BBE6200001F052FFF8
:10548000B44E636B002B00D075E033882A689C46CD
:105490003CE6F21AE3D5B048019CFEF7C9FF0028AC
:1054A00000D17FE660673900FFF738FD7AE6320009
:1054B00045466646019C9B1A00D473E6487B0B7BED
:1054C00000021843FDF7E0F9C30700D56AE6A248D9
:1054D000FEF7AEFF3860002800D163E6F8682A685E
:1054E000437901791B020B43817909040B43C1798C
:1054F000090619433B895B18D31A00D5C1E2636AD8
:105500003188591A238DC918891A00D44AE63B6894
:10551000DB68587B1A7B00021043FDF7B5F9C3071F
:1055200000D5BBE23A68218D2B685068C91A636ABE
:105530009C46614489B21181FEF73AF83B681F89A5
:10554000DB68587B1A7B00021043FDF79DF90300CE
:10555000032003405A1E9341616AFB188C462A6857
:105560009BB233809B18228D6244934200D119E68E
:105570007A48FBF7A7FC009A1068328894462A689C
:10558000E9E60222638B134363830BE63021635EFB
:10559000002B00DA4FE6804500D04CE64321635CE7
:1055A000FF2B00D1F2E10133DBB26354032B00D9AE
:1055B000ECE100D03FE6200001F076FD61E79A4380
:1055C0004A2362830022E15A023BE1522233E25233
:1055D0003C26A35FE68FDB109B194026A35343466E
:1055E0000236C31AA2539BB260646A20225AD318AF
:1055F0009BB29A421ED88B421DD223526DE60122E5
:1056000048235242E25268E66833E0527BE6524851
:1056100090463B890289019C9A4200D8C2E5FEF778
:1056200007FF002800D1BDE54346002B00D139E734
:10563000186038E74A4B6A225B1AA352638ECB1874
:105640009BB28B42DBD3223AA35246E6424F3B89C0
:105650009846FB68587B1A7B00021043FDF714F94B
:10566000032303405A1E934143449BB23380228D4F
:10567000934200D956E1616F002900D12BE1FB680C
:10568000587B1A7B00021043FDF7FEF8C3076DD468
:10569000636F9846002B00D1FBE10123994601334B
:1056A0009A46230000974446984609E02368200064
:1056B0009B46FEF7AFFE5B46002B00D17CE15C46CB
:1056C0002A68338893469C46DC446746E2685179F1
:1056D000107909020143907900040143D079000652
:1056E000014320894018381A00D55AE1507B137BBA
:1056F00000021843FDF7C8F84B460342D6D0009B82
:10570000DB68587B1A7B00021043FDF7BDF8534657
:105710000342CBD1009FFA68537B107B1B020343EB
:105720009B460120FDF7B0F85B46FF21FA68034372
:1057300098B20B401373030A53733B899B46FDF7E2
:10574000A3F8032303405A1E93415B443380ADE723
:10575000FC0F0020E8BB0020B8200020B45A011044
:10576000FFFF000003686367FEF754FE606F0028C8
:10577000F8D12A6833889446228D9C446146616240
:10578000934200D9A8E1D31A23852000FEF73CFB01
:105790007B681A89002A03D0D54A136000237B60F6
:1057A000FB68587B1A7B00021043FDF76DF8C307B6
:1057B00004D52021CF4A13780B431370666F002E57
:1057C00072D0CB4B03279946CA4B98461FE0FDF792
:1057D000E1FF00237360F368587B1A7B00021043DB
:1057E000FDF752F8C3070AD5434620221B7813431E
:1057F00042461370237D042B01D103332375336894
:1058000030006367FEF706FE666F002E4CD0F1682D
:1058100048790B798A79000218431204CB79104336
:10582000626A1B06034393423ED12B603389487B57
:105830009A460B7B00021843FDF726F83840431EBA
:105840009841636A5344C018238D60629A46338935
:105850009B46F368587B1A7B00021043FDF714F84F
:105860003840431E98415844824500D231E1338983
:105870009A46F368587B1A7B00021043FDF704F840
:105880003840431E9841238D5044181A208520002B
:10589000FEF7BAFA71680B89002B9CD04B4618684A
:1058A000002894D1196094E70122638B1A420ED02C
:1058B0009343022213436383C9E4002800D141E5E6
:1058C000C1682EE58C48FEF7B3FD60676AE40122EB
:1058D00013436383BBE429688C469C444EE78648A7
:1058E0004546019C9046FEF7A3FD061E00D159E4F3
:1058F0004346D868296842790379857912021A43A8
:10590000C3792D042A431B06134342461289D21839
:105910008A1A71D44346390030001E60FFF7FEFA40
:10592000FFF740FCFB68587B1A7B00021043FCF732
:10593000ABFFC30749D4FB68587B1A7B00021043B6
:10594000238D3B81FCF7A0FF3989830702D50139FC
:1059500089B239817868FDF72BFE3B899846FB6850
:10596000587B1A7B00021043FCF78EFF0323034091
:105970005A1E9341434429689BB23380228D5818A4
:10598000616A5118884200D175E6F1E54823E25A70
:10599000638ED3189BB29A4200D9584B4822A35227
:1059A00009E64246A04614006246009F8A1A2BD49C
:1059B00042466267228DE1E62A68338894460022D7
:1059C0004446009F90469C44F2E7FB681A7B5B7B51
:1059D0001B02134318009846FCF756FF3E2318405D
:1059E000FCF752FF4246464B13400343FA6898B215
:1059F0001373030A5373A3E7C91A434689B258685D
:105A00001981FDF7D5FD85E75B46C91AFB68398129
:105A1000587B1A7B00021043FCF736FF830702D540
:105A20003B89013B3B8139897868FDF7C1FD3B89A2
:105A30009946FB68587B1A7B00021043FCF724FF51
:105A4000032303405A1E934142464B44D1689BB204
:105A500033804A790879120210438A79C97912048D
:105A60000243090611432A688C469A188A429FD03D
:105A70002448FBF727FA2448FBF724FA2348FBF7CE
:105A800021FA511A89B278683981FDF791FD2A68A7
:105A900035E52A68338894469C4489E73B68DB688F
:105AA0001A7B5B7B1B02134318009846FCF7ECFE45
:105AB0003E231840FCF7E8FE84464046104B3A6807
:105AC000034060461843D16883B21B0A08734B73C6
:105AD00029E50F48FBF7F6F90E48FBF7F3F90E48F6
